:020000040800F2
:1000000050080024390300081F2900087D28000833
:100010001D290008A3040008952D00080000000019
:10002000000000000000000000000000652B000838
:100030000905000800000000212900080D2C000817
:100040005303000853030008530300085303000838
:100050005303000853030008530300085303000828
:100060005303000853030008530300085303000818
:100070005303000853030008530300085303000808
:100080005303000853030008530300081105000838
:10009000530300081D05000853030008530300081C
:1000A00053030008530300085303000853030008D8
:1000B00053030008530300085303000853030008C8
:1000C00053030008530300085303000853030008B8
:1000D00053030008530300085303000853030008A8
:1000E00053030008530300080000000053030008F6
:1000F0005303000853030008530300085303000888
:100100005303000853030008530300085303000877
:100110005303000853030008530300085303000867
:100120005303000853030008530300085303000857
:100130005303000853030008530300085303000847
:1001400000000000000000000000000000000000AF
:100150005303000853030008530300085303000827
:100160005303000853030008530300085303000817
:100170005303000853030008530300085303000807
:1001800053030008530300085303000853030008F7
:1001900053030008530300085303000853030008E7
:1001A00053030008530300085303000853030008D7
:1001B00053030008530300085303000853030008C7
:1001C00053030008530300085303000853030008B7
:1001D00053030008530300085303000853030008A7
:1001E0005303000853030008530300085303000897
:1001F0005303000853030008530300085303000887
:100200005303000853030008530300085303000876
:100210005303000853030008530300085303000866
:1002200053030008530300085303000800000000B4
:1002300053030008530300080000000053030008A4
:100240005303000853030008530300085303000836
:100250005303000853030008530300085303000826
:100260005303000853030008530300085303000816
:100270005303000853030008530300080000000064
:100280005303000853030008530300080000000054
:10029000000000005303000800F002F800F03CF8F2
:1002A0000AA090E8000C82448344AAF10107DA45D1
:1002B00001D100F031F8AFF2090EBAE80F0013F0E7
:1002C000010F18BFFB1A43F0010318477C2C0000F4
:1002D0009C2C0000103A24BF78C878C1FAD8520785
:1002E00024BF30C830C144BF04680C6070470000B0
:1002F0000023002400250026103A28BF78C1FBD82F
:10030000520728BF30C148BF0B6070471FB502F0CD
:10031000DFFD1FBD10B510BD00F08AF81146FFF7D4
:10032000F5FF02F049FD00F0A8F803B4FFF7F2FF73
:1003300003BC00F0AFF800000948804709480047B7
:10034000FEE7FEE7FEE7FEE7FEE7FEE7FEE7FEE785
:10035000FEE7FEE704480549054A064B70470000E2
:10036000B92C00089902000850020024500800240B
:10037000500400245004002410B5203AC0F00B8033
:10038000B1E81850203AA0E81850B1E81850A0E899
:100390001850BFF4F5AF5FEA027C24BFB1E81850F3
:1003A000A0E8185044BF18C918C0BDE810405FEA63
:1003B000827C24BF51F8043B40F8043B08BF7047DF
:1003C000D20728BF31F8023B48BF11F8012B28BFE4
:1003D00020F8023B48BF00F8012B70474FF00002A5
:1003E00000B5134694469646203922BFA0E80C502B
:1003F000A0E80C50B1F12001BFF4F7AF090728BF06
:10040000A0E80C5048BF0CC05DF804EB890028BF81
:1004100040F8042B08BF704748BF20F8022B11F0AA
:10042000804F18BF00F8012B704770477047704726
:10043000754600F02BF8AE4605006946534620F09D
:100440000700854618B020B5FFF784FFBDE82040BF
:100450004FF000064FF000074FF000084FF0000B80
:1004600021F00701AC46ACE8C009ACE8C009ACE833
:10047000C009ACE8C0098D46704710B50446AFF31B
:1004800000802046BDE81040FFF74FBF004870478E
:10049000F001002401491820ABBEFEE7260002004F
:1004A0007047FEE7164A002070B508250123C2E90F
:1004B0000030C2E90205106102F1240150610224FA
:1004C0009061D0614832C1E90040C1E9020508618C
:1004D00048618861C861243193601060D3605060C6
:1004E0000848C2E9043400F0C3F90648002201219B
:1004F00000F046F9034800F03AFE0028FAD170BD3A
:10050000C000002450010024704772B6FEE70000CE
:10051000014800F0B7BA000050010024014800F083
:10052000B1BA000050010024F0B503684FF6FC7129
:100530006D4C426BD3F884508D4345EA8205C3F875
:100540008450036853F8845F068F25F47F0545EADD
:1005500006451D60836B654D9F180268D2F8883090
:100560008B4343EA8703C2F88830026852F8883F19
:10057000868F23F4FE0343EA06431360066856F8A9
:10058000A03FC26B8B4307EB420243EA8203336016
:10059000076857F8A03FB0F8406023F4FE0343EA31
:1005A00006433B60D0E9103603FB06220368D3F80C
:1005B000B0608E4346EA8206C3F8B0600368B0F8C4
:1005C0004860D3F8B07027F4FE0747EA0646C3F840
:1005D000B060D0E91267036806FB0722D3F8AC606D
:1005E0008E4346EA8206C3F8AC60D0E9146703681C
:1005F00006FB0722D3F8F0608E4346EA8206C3F872
:10060000F0600368B0F85860D3F8F07027F47C17F6
:1006100047EA0646C3F8F0600368876D53F8C06F79
:1006200002EB47028E4346EA820119600168B0F886
:100630005C20D1F8C03023F47C1343EA0242C1F8B5
:10064000C020016890F86020D1F8C03023F07C53BE
:1006500043EA0262C1F8C020416B04EB8101C1662C
:10066000826B01EB82020267C36B02EBC30242673B
:10067000D0E91034634302EB83028267D0E912347D
:10068000634302EB8302C267D0E91434634302EB95
:100690008302C0F88020836D02EBC303C0F884306E
:1006A000C46D826E544303EB8403C0F88830046E3B
:1006B000544303EB8402C0F89020AA420AD9D0F830
:1006C0009C20032142F02002C0F89C2080F8981062
:1006D0000120F0BD002200E004C1D0F890308B4230
:1006E000FAD80020F0BD000000AC0040FCD3004070
:1006F000F0B58E680C69D1E9005744EA0604DFB111
:1007000045F080452C43866ED1E906C54F695E43AE
:1007100091F8203045EA0C05B1F80CC0D0F884E01F
:10072000002047EA03630C4F1D430EEB860345EAA6
:100730000C45E3E802450AE044EA8544E3E714187F
:10074000155C001DD4F8014045EA042410C3CC68B0
:100750003C5D8442F3D8F0BDDC2E000870B5044641
:1007600000F044FE0546601C02D0044800780444B2
:1007700000F03CFE401BA042FAD370BD680000248C
:1007800010B590F89830012B09D0022B07D0D0F883
:100790009C1041F00201C0F89C10012010BD0368BC
:1007A0009C6D0C4203D1DC6D44F0010404E09C6DAF
:1007B00031EA04041FD00324DC658B0505D50368EA
:1007C000D3F8E0401443C3F8E0404B0505D5036877
:1007D000D3F8E4401443C3F8E4400068084A01EA4F
:1007E0000203446D074A1C434465106840EA917057
:1007F0001060002010BDDC6D44F00204DCE7000056
:10080000FFFFCF3F14A8004070B5044690F8980051
:10081000022804D0D4F89C0040F008000DE02068C5
:10082000D0F8C03013F07C5F0BD0D0F8C4309B02FE
:100830000CD5D4F89C0040F40070C4F89C00012052
:1008400070BDD4F89C0040F02000F6E7D0F8C4005A
:10085000C0F3044520462B46FFF74AFF21680120DC
:10086000A840C1F8D000C4F89400002070BD7047C3
:1008700070B590F89820012A09D0022A07D0D0F844
:100880009C1041F00201C0F89C10012070BD0B6863
:10089000CA6883B10B69072A43EA427325D00C7AF0
:1008A0004A6942EA84724968006F00EBC100C0E9FE
:1008B0000032002070BD072A0DD00C7AD6060D8AB2
:1008C0004B6943EA847246EA0543C06E49681A439D
:1008D00040F82120EDE70B8A4FF06055D1E906245E
:1008E00042EA034245EA0423EFE78A69DBE77047FF
:1008F00070470000F0B590F898500024022D04D005
:10090000D0F89C1041F0080129E0402905D0412988
:1009100029D0056D8D4219D942E00568D5F8A0604F
:1009200016F4FE0F12D0D5F8A460760613D0D5F8D1
:10093000A460F60105D5D5F8A06016F0004F00D5EB
:100940000124D5F8A470466F456C24E0D0F89C10C3
:1009500041F0200103E0D0F89C1041F48071C0F810
:100960009C100120F0BD0568D5F8B06016F4FE0FAC
:10097000ECD0D5F8B4607606EDD0D5F8B460F601C9
:1009800005D5D5F8B06016F0004F00D50124D5F894
:10099000B470866FC56CC7F305273C44654302E01D
:1009A000456DC66F4D4306EB85052E6816F08046F3
:1009B00056602E6836D026F060461660D5F800C026
:1009C00000262E4F0CF0005CC2F808C0D5F800C01D
:1009D0000CF0004CC2F810C0B5F804C01FFA8CFC33
:1009E000C2F81CC0D5F804C0CCF3034CC2F80CC04C
:1009F000D5F804C00CF4801CC2F814C0D5F804C0AB
:100A00000CF4001CC2F818C0D5F804C0CCF3066C76
:100A1000C2F820C0D5F804C008354FEADC7CC2F823
:100A200024C008E0C6F38A46C7E700BF15F806C031
:100A300003F806C0761CD2F80CC017F80CC0B445F9
:100A4000F4D840290AD041290CD020294FF00102C6
:100A50000CD200688A40C0F898200DE00068C0F809
:100A6000A84009E00068C0F8B84005E0006801F05F
:100A70001F018A40C0F89C200020F0BDDC2E000839
:100A8000704700002DE9FF5FDFF80CB304460BF15F
:100A90000401DBF8000025680F68AA468007D5F836
:100AA0005090696DD5F850806E6D2A6DD5F854C0A0
:100AB0002B6D00EA8770009009F470496F6D286D06
:100AC00001EA09010191DAF85410DAF85490DAF8E1
:100AD000505008F00F0806EA0806029602F0F002ED
:100AE00003F071536FEA09061F4000F060700CEAD2
:100AF000020CCDF80CC0F20501EA00090CD4E84361
:100B0000C00509D400214FF48073CAF85030CBF8E7
:100B100000102046FFF7B4FF700512D4E8434005EB
:100B20000FD4206800234FF48068D0F8DC20D0F880
:100B3000E410C0F85080CBF800301140204600F09F
:100B400035FBDFF858A2009850B12268830F00EA05
:100B50000A001065CBF8003020460099FFF787FEA9
:100B6000019850B12268830F00EA0A001065CBF8A3
:100B700000302046019900F01BFB029850B122681A
:100B8000830F00EA0A001065CBF800302046029976
:100B900000F082FA039850B12268830F00EA0A003D
:100BA0001065CBF800302046039900F0DFFA3005DD
:100BB0000CD4E843000509D4236800204FF40062F8
:100BC0001A65CBF80000204600F0F3FAB00512D405
:100BD000E84380050FD4206800234FF40078D0F854
:100BE000D820D0F8E010C0F85080CBF80030114089
:100BF000204600F0DCFA30030CD4E843000309D4AB
:100C0000236800204FF400221A65CBF8000020462C
:100C100000F040FAF0030CD4E843C00309D4236881
:100C200000204FF480321A65CBF80000204600F017
:100C3000BCFA70030CD4E843400309D422680020B6
:100C40004FF480231365CBF80000204600F0ACFA87
:100C5000B0030FD4E84380030CD4236800204FF482
:100C600000321A65CBF80000D4F89C0040F08000F8
:100C7000C4F89C00B9F1000F0BD022684FEA9973B9
:100C800009EA0A001065CBF8003049462046FFF714
:100C90002FFE5FB12268BB0F07EA0A001065CBF890
:100CA0000030D4F89C003843C4F89C003C492068CC
:100CB000884268D1606881468068800763D0D9F82F
:100CC0002060D9F82410D9F82080D9F82400D9F868
:100CD00020C0D9F82470D9F82030D9F82450D9F898
:100CE000202003F4FC4306F00F0AD9F824601D40CD
:100CF000D9F824B008F030080CF4C07C02F4F022DB
:100D000011EA0A0100EA080807EA0C0706EA0206E7
:100D1000D9F820A004D0C9F82010204600F041FAEC
:100D2000B8F1000005D0616808624146204600F035
:100D30003AFA6FEA0B0040060ED46FEA0A0040064A
:100D40000AD460684021C36BC26B01622046190C53
:100D500002F03F0200F026FA2FB1606807623946C0
:100D6000204600F01DFA35B160680562D4F89C0099
:100D70002843C4F89C0036B160680662D4F89C0031
:100D80003043C4F89C00D4F89C00002802D02046D0
:100D9000FFF7ADFDBDE8FF9F10A80040FFFFCF3F6C
:100DA00000A000402DE9F04194B08D494C2204464A
:100DB0006846FFF7E1FA64B18A4D2068A84202D183
:100DC00000F58070606094F898004FF0000820B142
:100DD00008E0012014B0BDE8F081204684F8998035
:100DE00000F002F92068816921F01001816100F0B2
:100DF000FDFA0327064604E000F0F8FA801B0A28F3
:100E000011D8206880690007F6D42068816941F014
:100E10000101816100F0EAFA06460DE000F0E6FA11
:100E2000801B0A2808D9D4F89C0040F00100C4F8BF
:100E30009C0084F89870CCE720688069C007EDD0EA
:100E40002068816941F002018161207C01282068CD
:100E5000816937D041F040018161607C01282068C0
:100E6000816932D021F480418161A07C0128206811
:100E700081692DD041F4805181612068A268816927
:100E800021F44071114381612068816921F0A4013E
:100E900081612068016921F010010161E068012889
:100EA00019D010B302281BD02068816941F080015D
:100EB00081612068016941F010010161E068032847
:100EC0000ED012E021F04001C6E741F48041CBE7AB
:100ED00021F48051D0E72068816941F0040103E0EA
:100EE0002068816941F020018161207E6FF0FF025E
:100EF000D4E90773A68A1102400602EB0727A0F186
:100F00000070384327685B1E184301EB06463043E8
:100F1000F861A068B0F5407F11D104F12800A68CDB
:100F20006FF00F0C89C801EB0641401E02EB032253
:100F3000104322680CEB071318430843D060206E5F
:100F400030B12068626ED0F8C0101143C0F8C010F4
:100F5000D4E917126846D14209D02168A36E51F82E
:100F6000C82F50F8233022F007021A430A60216C80
:100F700049B12168626C51F8BC3F50F8226023F0FF
:100F8000070232430A60A16C51B12168E36C51F849
:100F9000BC2F50F8233022F0700242EA03120A609C
:100FA000216D51B12168626D51F8BC3F50F82200AB
:100FB00023F4E06242EA002008602068A84204D1DD
:100FC0006068816821F003018160C4F89480012188
:100FD000C4F89C8084F898102046FFF7A5FAF9E63B
:100FE000EC2E000800A0004010B5B6B00446142155
:100FF00030A8FFF7F3F9C0216846FFF7EFF922495F
:10100000206888423DD100204FF40041CDE9001016
:101010004A0368461C9200F0BDFA08B1FFF775FA62
:101020001A48016841F480710160006800F4807022
:10103000359016480C38016841F0010101600068E4
:101040000923022200F00100359000204FF4C05126
:10105000309130A9CDE93120CDE933030C4800F0BF
:10106000A9F800221320114600F038FA132000F0EE
:1010700027FA00221520114600F030FA152000F062
:101080001FFA36B010BD000000A00040EC4402582A
:10109000000002587047000070B5C9074FF0000407
:1010A00025D0304B4021304AFFF724FC2E4A2D48F2
:1010B000A2F1A8011268022A1AD0012A17D10278D7
:1010C0007AB3012A13D0022A11D1D0F80150427903
:1010D000037928BA012A20F0FF0040EA03003ED03D
:1010E000002A04D14042086062EB04024A6070BDED
:1010F0000278BAB1012AFAD0022AF8D1D0F8015008
:101100004279037928BA012A20F0FF0040EA03005F
:1011100015D0002AEBD14042086162EB04024A611B
:1011200070BD0FE042790A77002AF9D1B0F80120AA
:1011300052BA0A83B0F8030040BA4883F0E7086166
:101140004C61EDE742790A73002AE9D1B0F8012039
:1011500052BA0A81B0F8030040BA4881E0E708605B
:101160004C60DDE70000002428010024704790F85F
:101170009810012907D0D0F89C1041F00401C0F864
:101180009C1001207047022180F89810002201680D
:101190008B6923F001038B61C0F89C2010467047D7
:1011A0007047704770477047704770477047704787
:1011B000704770472DE9F84F03247D4D00234FF011
:1011C00001094FF0B04B4FF00F0AE9E009FA03F7BD
:1011D0003A4076D00E7906F00306012E01D0022E99
:1011E00018D1D0F808C04FEA430ECE6804FA0EF8C2
:1011F0002CEA080C06FA0EF646EA0C068660D0F8D1
:1012000004C00E792CEA070CC6F300169E4046EA8D
:101210000C0646600E79F643B6070BD0C6684FEA57
:1012200043088F6804FA08FC26EA0C0607FA08F758
:101230003743C7600E7906F00306022E12D1DE088E
:101240000F694FEA437C00EB8606B646366A4FEAE2
:10125000DC6C0AFA0CF807FA0CF726EA08063743A2
:10126000CEF820700F7906684FEA430807F00307AD
:1012700004FA08FC07FA08F726EA0C063743076069
:101280004E6816F4403F1CD04A4E376847F00207BC
:10129000376036689F0706F00206009623F00306C3
:1012A00006F1B046B6463F0FD6F80864DFF808816D
:1012B0000AFA07FC404526EA0C0603D14FF0000C61
:1012C00041E06CE0DFF8F4C0604502D14FF0010C62
:1012D00039E0DFF8ECC0604502D14FF0020C32E09B
:1012E000DFF8E0C0604502D14FF0030C2BE0DFF8DF
:1012F000D8C0604502D14FF0040C24E0DFF8CCC028
:10130000604502D14FF0050C1DE0DFF8C4C0604518
:1013100002D14FF0060C16E0DFF8B8C0604502D1EC
:101320004FF0070C0FE0DFF8B0C0604502D14FF07E
:10133000080C08E0DFF8A4C0604502D14FF0090CAA
:1013400001E04FF00A0C0CFA07FC4CEA060CCEF850
:1013500008C44F68DBF80060FF0226EA020600D5E9
:1013600016435F46CBF80060D1F804C0DBF8046098
:101370005FEA8C2C26EA020600D516437E606E6872
:101380004F6826EA0206BF0300D516436E602E683A
:101390004F6826EA0206FF0300D516432E605B1C49
:1013A0000A6832FA03F67FF411AFBDE8F88F000047
:1013B00080000058F444025800000258000402580B
:1013C00000080258000C025800100258001402587D
:1013D00000180258001C025800200258002402582D
:1013E00001480068000C70470010005C01488068EC
:1013F00070470000680000240248816802781144A8
:101400008160704768000024032010B500F086F862
:1014100000F0C4FE0F4A104914681368C4F3032295
:1014200003F00F038A5CC95C02F01F0201F01F0188
:10143000D0400A4A20FA01F11160094908600F20E2
:1014400000F010F808B1012010BD00F02BF80020CA
:1014500010BD000018440258382F000878000024FE
:101460007400002470B50D4D04462878A0B14FF4E7
:101470007A71B1FBF0F00A490968B1FBF0F001F0B4
:10148000EAF948B9102C07D200222146501E00F07C
:1014900025F800206C6070BD012070BD680000243C
:1014A00074000024054808B5016841F0020101609C
:1014B000006800F00200009008BD0000F4440258EB
:1014C000002809DB410900F01F028900012001F119
:1014D000E0219040C1F80001704700000E4BF0B4CD
:1014E0001B680D46C3F30223C3F10706042E00D97F
:1014F0000426191D072901D2002300E0DB1E012468
:1015000004FA06F19C40491E2940641E994014408B
:101510002143F0BC01F03FBC0CED00E0064900F0B7
:10152000070210B54FF6FF040868044B204040EA5C
:1015300002201843086010BD0CED00E00000FA0521
:10154000134970B50A68D243520705D5096801F0FE
:101550000701814213D118E00A6822F00702024312
:101560000A60FFF743FF0A4D4FF47A760446083DC0
:1015700007E000BFFFF73AFF001BB04201D901208E
:1015800070BD2868C0438004F4D4002070BD000002
:101590000C4802582DE9FE4F0546DFF8E48350F869
:1015A000081B0024F64FC943019005F12800264688
:1015B00008F12408009008011DD4A86E50B1B0F5C0
:1015C000801F0CD0B0F5001F0ED0B0F5401F1ED00C
:1015D00001240FE0386840F40030386017E00198CB
:1015E000022101F09FF903E00098022101F02AFA9C
:1015F00004000CD026462888C043C00523D4A86D1B
:1016000005281ED2DFE800F00C11161B1B00AA6E85
:10161000D8F8001021F440111143C8F80010EAE78F
:10162000386840F40030386009E00198002101F08A
:1016300079F903E00098002101F004FA044674B13E
:1016400000E0012426462888C043800528D4E86DA0
:1016500080281ED00CDC90B140280ED114E0AA6D79
:10166000D8F8001021F007011143C8F80010EAE78C
:10167000C02813D0B0F5807F10D001240FE0386867
:1016800040F40030386009E00198002101F04AF987
:1016900003E00098002101F0D5F904469CB12646EC
:1016A0002888DFF8DC92C04309F12C0940052CD4CE
:1016B000D5F8A800B0F5800F20D00DDCA0B1B0F5B2
:1016C000001F0FD115E0EA6DD8F8001021F4E07189
:1016D0001143C8F80010E3E7B0F5C00F13D0B0F520
:1016E000000F10D001240FE0386840F4003038605B
:1016F00009E00198002101F015F903E000980021AC
:1017000001F0A0F904467CB126462888C0430005B4
:101710002DD4D5F8AC00B0F1007F21D00EDCA8B1FB
:10172000B0F1807F10D116E0D5F8A820D9F80010CC
:1017300021F460011143C9F80010E6E7B0F1407FE1
:1017400013D0B0F1806F10D001240FE0386840F45E
:101750000030386009E00198002101F0E3F803E06F
:101760000098002101F06EF9044674B126462868FD
:10177000C04380011FD4E86CD8B110280FD02028B6
:1017800012D0302815D0012414E0D5F8AC20D9F8B7
:10179000001021F0E0611143C9F80010E7E7386854
:1017A00040F40030386004E00198022101F0BAF8FA
:1017B000044674B126462888C043C0042BD4286E42
:1017C000B0F5005F20D00DDCA0B1B0F5805F0FD187
:1017D00015E06B48EA6C2030016821F030011143BC
:1017E0000160E8E7B0F5405F13D0B0F5804F10D04E
:1017F00001240FE0386840F40030386009E00198B7
:10180000002101F08FF803E00098002101F01AF99F
:1018100004468CB126462888C043800429D4686ECB
:10182000B0F5403F23D010DC08B3B0F5803F14D0B2
:10183000B0F5003F0FD115E02A6ED8F8001021F462
:10184000E0411143C8F80010E5E7B0F5802F0ED055
:10185000B0F5A02F0BD001240AE00198012101F07E
:1018600061F803E00098012101F0ECF8044694B11E
:1018700026462888C04340042AD4D5F8B000B0F1E9
:10188000405F23D010DC08B3B0F1805F14D0B0F11A
:10189000005F0FD115E06A6ED8F8001021F4E02146
:1018A0001143C8F80010E4E7B0F1804F0ED0B0F15A
:1018B000A04F0BD001240AE00198012101F032F879
:1018C00003E00098012101F0BDF8044674B12646FA
:1018D0002888C04300041FD4286FD8B1B0F1805FBE
:1018E0000ED0B0F1005F10D0012414E0D5F8B02084
:1018F000D9F8001021F0E0411143C9F80010E7E7E2
:10190000386840F40030386004E00198012101F0AB
:1019100009F8044674B126462868C043C0011ED4A5
:10192000A86CD0B101280ED0022811D0032814D001
:10193000012413E02A6FD8F8001021F04051114320
:10194000C8F80010E8E7386840F40030386004E078
:101950000198022100F0E6FF0446ACB12646286853
:10196000DFF81CB0C043ABF11C0B400252D4054859
:10197000016841F480710160FFF738FD824611E093
:101980002C44025800480258FA48AA6C016821F019
:10199000030111430160E2E7FFF728FDA0EB0A0015
:1019A000642835D8F4480068C005F5D58CBBDFF84D
:1019B000C4A3B5F8B4100AF1240ADAF8000001F45F
:1019C000407100F44070884211D0DAF80010DAF863
:1019D000002021F4407142F48032CAF80020DAF885
:1019E000002022F48032CAF80020CAF80010D5F88E
:1019F000B400B0F5807F1AD1FFF7F8FC029012E036
:101A0000FFF7F4FC0299411A41F2883081420AD969
:101A1000032426462878DFF85CA3C0430AF1080AAD
:101A2000C00721D03CE0DAF800008007E8D5D5F8FF
:101A3000B410C1F30120032858460DD0016821F4E9
:101A40007C510160B5F8B420DAF80010C2F30B0243
:101A50001143CAF80010DDE7C84A036802EA111210
:101A600023F47C511143ECE7E86F182816D005DC0D
:101A7000A0B1082808D0102804D10AE020280DD0F1
:101A800028280BD001240AE00198012100F04AFF28
:101A900003E00098012100F0D5FF044664B126461A
:101AA0002878C04380071ED4A86F062819D2DFE823
:101AB00000F0160C11161616EA6FDAF8001021F075
:101AC00038011143CAF80010EAE70198012100F03B
:101AD00029FF03E00098012100F0B4FF04467CB127
:101AE00000E0012426462878C04340071FD4D5F8DB
:101AF0009400062819D2DFE800F0160C111616160D
:101B0000AA6FDAF8001021F007011143CAF800109B
:101B1000E9E70198012100F005FF03E000980121A9
:101B200000F090FF0446A4B100E001242646287886
:101B3000C04380062BD4D5F89000B0F1405F24D08C
:101B400011DC10B3B0F1805F15D0B0F1005F10D19F
:101B500016E0D5F89420D9F8001021F007011143C0
:101B6000C9F80010E3E7B0F1804F0ED0B0F1A04FFC
:101B70000BD001240AE00198002100F0D3FE03E01D
:101B80000098022100F05EFF044694B126462878B2
:101B9000C04340062BD4D5F89C00B0F5406F24D04C
:101BA00011DC10B3B0F5806F15D0B0F5006F10D117
:101BB00016E0D5F89020DAF8001021F0E04111434A
:101BC000CAF80010E3E7B0F5805F0ED0B0F5A05F73
:101BD0000BD001240AE00198002100F0A3FE03E0ED
:101BE0000098022100F02EFF044694B12646287882
:101BF000C04300062BD4D5F8A000B0F5C04F24D0C8
:101C000011DC10B3B0F5005F15D0B0F5804F10D1E6
:101C100016E0D5F89C20D9F8001021F4E0511143CA
:101C2000C9F80010E3E7B0F5004F0ED0B0F5204F33
:101C30000BD001240AE00198002100F073FE03E0BC
:101C40000098022100F0FEFE044654B12646287892
:101C5000C04300071ED4D5F88400B0F5805F0AD0D9
:101C60000FE0D5F8A020D9F8001021F4604111430D
:101C7000C9F80010EBE70098022100F0E3FE00B184
:101C80000126D5F88420DAF8001021F440511143E0
:101C9000CAF800102878C043C00613D4D5F89800BD
:101CA000B0F5807F05D10098022100F0CBFE00B195
:101CB0000126D5F89820D9F8001021F4407111437D
:101CC000C9F800102868C043000316D4D5F8A40052
:101CD00038B1B0F5803F09D0B0F5003F0BD00124FA
:101CE0000AE00198002100F01DFE03E000980221A7
:101CF00000F0A8FE04468CB126462868C043400385
:101D000022D4D5F88800B0F5801F11D0B0F5001F9F
:101D100013D0B0F5401F15D0012414E0D5F8A4204D
:101D2000D9F8001021F440311143C9F80010E4E75C
:101D3000386840F40030386004E00098012100F079
:101D400081FE04465CB126462868C043C00323D404
:101D5000286DA8B1B0F5803F17D001241BE0D5F85D
:101D60008820DAF8001021F440111143CAF800105D
:101D7000EAE700004C44025800480258CFFFFF0039
:101D8000386840F40030386004E00198022100F027
:101D9000C9FD0446E4B126462868C043800005D446
:101DA0000098022100F04EFE00B101262868C043D1
:101DB00080031BD4D5F88000B0B1B0F5807F0FD080
:101DC000B0F5007F10D0B0F5407F0DD001240CE0BD
:101DD0005A482A6D016821F4803111430160DBE724
:101DE000386840F400303860ECB326462868C043B9
:101DF000C00207D46A6FD8F8001021F000411143E7
:101E0000C8F800102868C043C00008D4D5F8B8202E
:101E1000DBF8001021F480411143CBF80010286852
:101E2000C043800207D4EA6ED8F8001021F0807118
:101E30001143C8F800102868C04340000CD4DBF8F8
:101E4000001021F40041CBF80010DBF80010D5F8A9
:101E5000BC201143CBF800102868C04308D4374891
:101E60006A6D016800E018E021F040511143016003
:101E70002868C043000208D4D5F88C20DAF8001096
:101E800021F440011143CAF8001028790024C0430E
:101E900000F0010020430AD00FE0D5F88020DAF8E6
:101EA000001021F440711143CAF800109EE7019818
:101EB000002100F037FD00B106462879C04300F04C
:101EC0000200204305D10198012100F02BFD00B153
:101ED00006462879C04300F00400204305D101984C
:101EE000022100F01FFD00B106462879C04300F032
:101EF0000800204305D10098002100F0A3FD00B1A7
:101F000006462879C04300F01000204305D1009810
:101F1000012100F097FD00B106462879C04300F08A
:101F20002000044304D10098022100F08BFD00B989
:101F300016B10120BDE8FE8F0020FBE74C4402589B
:101F40002DE9F05F04000F467ED0DFF83882D8F824
:101F5000000000F00F00B8420CD2D8F8001021F0B9
:101F60000F013943C8F80010D8F8000000F00F0046
:101F7000B84269D12078844D40070AD52069296884
:101F800001F07001884204D9296821F070010143F1
:101F9000296020787C4E361D00070AD560693168BB
:101FA00001F07001884204D9316821F070010143C9
:101FB00031602078C0060AD5A069316801F4E0617B
:101FC000884204D9316821F4E0610143316020780E
:101FD000DFF8B4B180060BF1080B0CD5E169584667
:101FE000DBF8002002F07002914204D9026822F06E
:101FF00070020A430260207880070AD5E0682968E9
:1020000001F00F01884204D9296821F00F01014332
:1020100029602078C0073ED05B49A268286818393B
:1020200020F47060104328606068022818D00328EC
:1020300019D00968012819D0490700294ADADFF8C0
:1020400048A1AAF1080A00E044E0DAF8002022F0F2
:1020500007020243CAF80020FFF7C8F9814612E0E0
:1020600009688903E9E709688901E6E7C905E4E742
:10207000FFF7BCF9A0EB090141F28830814202D997
:102080000320BDE8F09F6168DAF8000000F0380036
:10209000B0EBC10FECD1207880070AD5E068296841
:1020A00001F00F01884204D2296821F00F01014399
:1020B0002960D8F80010404601F00F01B9420BD951
:1020C000016821F00F0139430160006800F00F0042
:1020D000B84201D00120D4E7207840070AD5206912
:1020E000296801F07001884204D2296821F070014A
:1020F00001432960207800070AD56069316801F042
:102100007001884204D2316821F0700101433160CE
:102110002078C0060AD5A069316801F4E0618842E0
:1021200004D2316821F4E0610143316020788006F7
:102130000CD5E1695846DBF8002002F070029142AC
:1021400004D2026822F070020A43026000F026F80E
:102150000E492A682B68C2F3032203F00F038A5C3E
:10216000C95C02F01F0201F01F01D040084A20FAAA
:1021700001F111600749086007480068BDE8F05F99
:10218000FFF770B90020005218440258382F000899
:1021900078000024740000246C000024454970B5C8
:1021A00045480968434B103B11F0380208D0011133
:1021B000082A03D0102A0BD0182A0BD0084670BD6D
:1021C00019688906FBD51968C1F3C101C84070BD03
:1021D0003A4870BD3749374D18310C1D24350A680F
:1021E000096826682D6802F0030406F00102C1F3B5
:1021F0000511C5F3CC0515FB02F200EE102AB8EE6E
:10220000400AE9B32F4ADFED2E0AB7EE001A6CB18F
:10221000DFED2D1A012C01D0022C43D002EE101A52
:102220001068F8EE422A81EEA22A1EE01C68A4067D
:1022300011D51B6801EE901A1168C3F3C103F8EEC3
:10224000612AD84001EE900AC1F30800F8EE611A45
:1022500081EEA22A0BE001EE901ADFED1C2A00BFEE
:10226000F8EE611A106882EEA12AC0F3080001EEB0
:10227000900AF8EE611A40EE201A31EE810A00E071
:1022800015E022EE000A1068C0F34620401C00EE64
:10229000900AF8EE600A80EE201ABCEEC10A10EE39
:1022A000100A70BD01EE901ADFED092AD8E7002070
:1022B00070BD0000104402580090D00340787D01AA
:1022C00000000039304402580024744A0024744C41
:1022D00020BCBE4B2DE9F05F04007DD0FF4F20787D
:1022E000FE4D1837DFF8F493103DC00748D0D9F8F9
:1022F0000000396800F03800102815D0182803D1E4
:1023000001F0030002280FD06068B0F5803F12D0C2
:1023100010B1B0F5A02F18D0286820F480302860C4
:10232000286820F4802009E02868800328D56068A8
:102330000028D2D024E0286840F48030286060680B
:1023400088B1FFF753F8064609E0286840F480207A
:102350002860F0E7FFF74AF8801B64286FD82868E8
:102360008003F7D50CE0FFF741F8064605E000BF13
:10237000FFF73CF8801B6428F0D828688003F7D466
:10238000207841F20308D54E0C3E800769D5D9F874
:102390000000396810F038000ED0182801D18807E5
:1023A0000AD0E06890B3296821F01901014329603F
:1023B000FFF71CF8824631E02868400702D5E06844
:1023C00000288AD0E168286820F0190008432860B6
:1023D000FFF70CF8824607E0DFE000BFFFF706F8E2
:1023E000A0EB0A000228B9D828684007F6D500BF3C
:1023F000FEF7F6FF40451BD82069402812D031680F
:1024000021F47C3141EA003030602AE018E000BF5E
:10241000FEF7ECFFA0EB0A0002289FD828684007CF
:10242000F6D5E5E7306820F47C3040F40030EBE787
:10243000207C316821F0FE4141EA0060E4E70DE1D3
:10244000286820F001002860FEF7D0FF824605E0F2
:10245000FEF7CCFFA0EB0A0002288DD828684007C1
:10246000F6D42078C0065DD5D9F80000DFF86CB24C
:10247000396800F03800ABF1040B082810D0182898
:1024800003D101F0030001280AD0E0690028286880
:1024900038D040F080002860FEF7A8FF824623E095
:1024A0002868C00523D5E069802876D11FE0206A1E
:1024B000202821D0316821F0F84141EA8060306065
:1024C00030E000BF94F82010DBF8002022F07C52AE
:1024D00042EA0161CBF8001024E000BFFEF786FF5E
:1024E000A0EB0A00022898D82868C005F6D5FEF7A8
:1024F00077FF4045E6D8DAE7306820F0F84040F052
:102500008040DCE720F080002860FEF76FFF064681
:1025100005E000BFFEF76AFF801B02289DD82868EF
:10252000C005F7D42078000729D56C48616964306C
:1025300000298046016811D041F001010160FEF7D9
:1025400055FF064605E000BFFEF750FF801B02283E
:10255000C9D8D8F800008007F6D510E021F00101B5
:102560000160FEF743FF064605E000BFFEF73EFFB1
:10257000801B022872D8D8F800008007F6D4207893
:10258000800623D5A0690028286810D040F4805028
:102590002860FEF72BFF064605E036E1FEF726FF32
:1025A000801B02285AD828688004F7D50EE020F452
:1025B00080502860FEF71AFF064604E0FEF716FF7B
:1025C000801B02284AD828688004F7D42078400766
:1025D0004FD5DFF80C81D8F8001041F48071C8F8AD
:1025E0000010FEF703FF064605E000BFFEF7FEFE03
:1025F000801B642832D8D8F80000C005F6D5374EC5
:10260000A068603601280AD008B1052813D03068C8
:1026100020F001003060306820F0040002E03068F3
:1026200040F001003060A06841F2883A90B1FEF7B6
:10263000DDFE80460AE0306840F004003060EEE7DE
:10264000FEF7D4FEA0EB0801514507D8306880079B
:10265000F6D50EE0FEF7CAFE804607E084E000BF34
:10266000FEF7C4FEA0EB080151457DD83068800715
:10267000F6D4606AB0B3DFF86480D9F8001008F1CE
:1026800020084FF6F87B08F10409C1F3C2010329C1
:10269000A8F1040A69D00228286820F08070286018
:1026A00003D0FEF7A3FE044684E0FEF79FFE064635
:1026B00005E000BFFEF79AFE801B022877D8286845
:1026C0008001F7D4E26A40F2F331386854F8283FC9
:1026D000884340EA02101843386004E0104402586E
:1026E00000480258B5E0217B434622894FF4FE0C96
:1026F000208A4FF0FE474902267D521E401EA1F55A
:102700000071C2F308088AB2761E0CEA004042EA61
:1027100008020243504607EA06610A431A60DAF8E3
:10272000002022F00102CAF80020D9F80020266A11
:1027300022EA0B0242EAC602C9F80020DAF80010C9
:10274000A26921F00C011143CAF800100168E26986
:1027500021F0020111430160016841F48031016000
:10276000016841F4003101E021E027E001600168E7
:1027700041F480210160016841F001010160286895
:1027800040F080702860FEF731FE044605E000BF8F
:10279000FEF72CFE001B022809D828688001F7D517
:1027A00057E000BFFEF722FE001B022802D90320DB
:1027B000BDE8F09F28688001F4D44AE03968012818
:1027C000D8F8000021D0A26A01F0030393421CD183
:1027D000E26AC1F305118A4217D1216BC0F30802E6
:1027E000491E8A4211D1616BC0F34622491E9142B3
:1027F0000BD1A16BC0F30642491E914205D1E16B9A
:10280000C0F30660491E814201D00120D0E7A16CCF
:102810004E46D9F80000C0F3CC00814219D0DAF856
:102820000000554620F00100CAF80000FEF7DEFD6A
:102830004FEA0007FEF7DAFDB842FBD0A26C306821
:1028400020EA0B0040EAC2003060286840F0010036
:1028500028600020ACE7401EB0F1807F10B501D3A6
:10286000012010BD4FF0E02460610F21601700F0DF
:1028700092FA0020A0610721216110BDFEE700004F
:102880001A4800212DE9F041DFF85CC00125816084
:102890001D26C0F800C00327C1600A2405740E235A
:1028A0004174042285744761C0E90646C0E90847BF
:1028B000C0E90A468563C0E90C41C0E90F13C0E9CD
:1028C0001121C0E91321C0E91521C0E91713C0E99E
:1028D0001912FEF767FA002803D0BDE8F041FDF7B2
:1028E00014BEBDE8F081000000A0004050010024AB
:1028F000094808B5016841F080010160016801F0F4
:1029000080010091016841F001010160006800F060
:102910000100009008BD0000E0440258FEE7FEE719
:10292000704700002DE9F047454D044689464FF0B9
:10293000000A2868C04380070AD0414E283E30680C
:1029400020F080603060FEF751FD0746B04608E099
:102950000120BDE8F08700BFFEF748FDC01B02283C
:1029600067D8D8F800000001F6D4206829684FF431
:10297000FE0721F47C313E0241EA00302860207AD3
:10298000A389B4F804C040022D4D2D495B1E227C62
:10299000ACF1010C1035091DA0F5007080B2521E7B
:1029A000CCF3080C07EA034340EA0C00184306EA9C
:1029B0000262104328600868626920F0C00010437A
:1029C00008600A68A06922F0200202430A60281DFC
:1029D0000A6822F010020A6002684FF6F873E46990
:1029E0009A4342EAC40202600868B9F1000F40F05D
:1029F00010020A6011D00868B9F1010F11D040F43B
:102A000000100860D8F80000444640F08060C8F824
:102A10000000FEF7EBFC05460DE0086840F40020DE
:102A2000EFE740F48010ECE7FEF7E0FC401B0228E3
:102A300001D903208DE720680001F5D5504688E7CD
:102A4000284402582DE9F047454D044689464FF089
:102A5000000A2868C04380070AD0414E283E3068EB
:102A600020F080503060FEF7C1FC0746B04608E019
:102A70000120BDE8F08700BFFEF7B8FCC01B0228AC
:102A800067D8D8F800008000F6D4208829684FF471
:102A9000FE0721F07C713E0241EA00502860207A56
:102AA000A389B4F804C040022D4D2D495B1E227C41
:102AB000ACF1010C1835091DA0F5007080B2521E52
:102AC000CCF3080C07EA034340EA0C00184306EA7B
:102AD0000262104328600868626920F44060104375
:102AE00008600A68A06922F4007202430A60281D87
:102AF0000A6822F480720A6002684FF6F873E4698B
:102B00009A4342EAC40202600868B9F1000F40F437
:102B100080720A6011D00868B9F1010F11D040F03D
:102B200080700860D8F80000444640F08050C8F833
:102B30000000FEF75BFC05460DE0086840F48000ED
:102B4000EFE740F40000ECE7FEF750FC401B0228E2
:102B500001D903208DE720688000F5D5504688E72D
:102B600028440258704700000FB42DE9F0410F9837
:102B7000002801DB012201E0404200220F49062625
:102B8000040E030C81F83060050A81F831400027FB
:102B900081F8323081F8335081F8340081F83520E3
:102BA00001F1300281F83670054881F8377006A9C6
:102BB000FDF72AFEBDE8F0015DF814FB08000024D3
:102BC000500100240FB40F480923002210B50B99BF
:102BD00080F848300B0A80F8493080F84A1002A982
:102BE00080F84B2080F84C2080F84D2080F84E2053
:102BF00080F84F2000F148020348FDF705FE10BCA5
:102C00005DF814FB0800002450010024FEF7F4BB1B
:102C100070B59CB04C216846FDF7E0FB202113A85D
:102C2000FDF7DCFB0220FEF78BFC21480024214944
:102C3000026842F44042026002680A6842F00102FF
:102C40000A60096801F001011B9101688904FCD543
:102C5000022009900DF1280C052101220092C303E6
:102C6000019360258CE823000FAD0822042685E837
:102C700016001294CDE90D066846FFF72BFB08B14C
:102C800072B6FEE713AD40203F21032285E816000F
:102C900003011A90CDE916400421CDE9180313A8C9
:102CA000FFF74EF9002801D072B6FEE71CB070BDE8
:102CB000184802582C0400582C48F0B52C4A0168DA
:102CC00041F470010160106800F00F00072804D281
:102CD000106820F00F00C01D106026490020254C10
:102CE00010340B68244D43F001030B6020600B6827
:102CF0002B400B60136803F00F03072B04D91368F4
:102D000023F00F03DB1D13601A4C1C4A18341C4BB4
:102D1000261D371D2060174C1A4D28343060261DA3
:102D20003860371D23603B1D35601C1D3A60251D32
:102D30002E1D1860331D22602860326018600A68FA
:102D40000C4B114C22F4802260330A60186020681A
:102D50006FF30F00B0F1005F03D20C490120C1F8FE
:102D6000080143F2D2000A490860F0BD88ED00E096
:102D700000200052004402587FEDF6EA8002010173
:102D8000000202020000FF010010005C0080005100
:102D900000400052FEE7090700284FEA116104DBFA
:102DA00000F1E02080F80014704700F00F0000F1FF
:102DB000E02080F8141D704788B0FEF725FBFFF770
:102DC00027FFFFF795FDFFF75BFDFDF76BFB3D4927
:102DD000502514226846CDE90551FDF7CDFA394C4E
:102DE000103C94E80F00FFF7EDFE374914226846C7
:102DF00005950791FDF7C0FA334D103D95E80F009A
:102E0000FFF7E0FE4FF4FA7741F27076C7F1000A5F
:102E100040F6B8394FF4FA684FEA8A0B0699142243
:102E200068460597FDF7A8FA94E80F00FFF79CFEA7
:102E30003046FDF793FC069914226846CDF81480BD
:102E4000FDF79AFA94E80F00FFF78EFE3046FDF783
:102E500085FC069914226846CDF81490FDF78CFA8B
:102E600094E80F00FFF780FE3046FDF777FC0699E7
:102E700014226846CDF814A0FDF77EFA94E80F00FE
:102E8000FFF772FE3046FDF769FC07991422684689
:102E9000CDF814B0FDF770FA95E80F00FFF764FE67
:102EA0003046FDF75BFC09481422079905906846F7
:102EB000FDF762FA95E80F00FFF756FE3046FDF782
:102EC0004DFCABE7D0000024F400002448F4FFFFE1
:102ED0004FF04070E1EE100A70470000000102035D
:102EE00004050607080C10141820304000000000EC
:102EF00000000000000000000000000000000000D2
:102F000001000000020000000300000004000000B7
:102F100000000000050000000000000000000000AC
:102F2000000000000600000000000000000000009B
:102F30000000000007000000000000000102030480
:102F40000102030406070809682F00080000002496
:102F50007C000000D4020008E42F00087C0000245C
:102F6000D4070000F002000800000000000000008C
:102F70000000000000000000010000000000000050
:102F8000020000000000000003000000000000003C
:102F90000400000000000000050000000000000028
:102FA0000600000000000000070000000000000014
:102FB0000800000000000000090000000000000000
:102FC0000A000000000000000B00000000000000EC
:102FD0000100000010000000000000000090D0037D
:042FE0000090D0038A
:040000050800029954
:00000001FF
