:020000040800F2
:100000003009002439030008B33D0008DB3B000839
:10001000B13D0008930500081F4D000800000000D6
:10002000000000000000000000000000F93F000890
:10003000F905000800000000B53D0008BD400008BB
:100040005303000853030008530300085303000838
:100050005303000853030008530300085303000828
:100060005303000853030008530300085303000818
:100070005303000853030008530300085303000808
:100080005303000853030008530300080106000847
:10009000530300080D06000853030008530300082B
:1000A00053030008530300085303000853030008D8
:1000B00053030008530300085303000853030008C8
:1000C00053030008530300085303000853030008B8
:1000D00053030008530300085303000853030008A8
:1000E00053030008530300080000000053030008F6
:1000F0005303000853030008530300085303000888
:100100005303000853030008530300085303000877
:100110005303000853030008530300085303000867
:100120005303000853030008530300085303000857
:100130005303000853030008530300085303000847
:1001400000000000000000000000000000000000AF
:100150005303000853030008530300085303000827
:100160005303000853030008530300085303000817
:100170005303000853030008530300085303000807
:10018000530300085303000853030008C94600083E
:1001900053030008530300085303000853030008E7
:1001A00053030008530300085303000853030008D7
:1001B00053030008530300085303000853030008C7
:1001C00053030008530300085303000853030008B7
:1001D00053030008530300085303000853030008A7
:1001E0005303000853030008530300085303000897
:1001F0005303000853030008530300085303000887
:100200005303000853030008530300085303000876
:100210005303000853030008530300085303000866
:1002200053030008530300085303000800000000B4
:1002300053030008530300080000000053030008A4
:100240005303000853030008530300085303000836
:100250005303000853030008530300085303000826
:100260005303000853030008530300085303000816
:100270005303000853030008530300080000000064
:100280005303000853030008530300080000000054
:10029000000000005303000800F002F800F03CF8F2
:1002A0000AA090E8000C82448344AAF10107DA45D1
:1002B00001D100F031F8AFF2090EBAE80F0013F0E7
:1002C000010F18BFFB1A43F001031847B84B000099
:1002D000D84B0000103A24BF78C878C1FAD852072A
:1002E00024BF30C830C144BF04680C6070470000B0
:1002F0000023002400250026103A28BF78C1FBD82F
:10030000520728BF30C148BF0B6070471FB504F0CB
:1003100069FD1FBD10B510BD00F001F91146FFF7D2
:10032000F5FF04F00FFD00F01FF903B4FFF7F2FF33
:1003300003BC00F027F9000009488047094800473E
:10034000FEE7FEE7FEE7FEE7FEE7FEE7FEE7FEE785
:10035000FEE7FEE704480549054A064B70470000E2
:100360006941000899020008300300243009002484
:10037000300500243005002453EA020C00F06980A7
:100380002DE9F04B4FF00006002B1FBFB3FA83F5A9
:1003900003FA05F424FA05F65E4012BF1643B2FADA
:1003A00082F502FA05F4C5F120051EBF22FA05FC0C
:1003B00044EA0C04203556EA044C4FEA144418BFB2
:1003C000641C4FF000084FF00009904271EB030CE1
:1003D00039D3002919BFB1FA81F701FA07F6B0FA4B
:1003E00080F700FA07F6C7F120071EBF20FA07FCC6
:1003F00046EA0C062037B6FBF4FCA7EB0507103FD6
:1004000007F01F0BCBF120060CFA0BFB2CFA06F6BB
:1004100044BFB3460026202FA4BF5E464FF0000B1A
:100420005BEA060C08BF4FF0010B19EB0B09ABFBA5
:10043000027C48EB0608C01B06FB02CC0BFB03CC7E
:1004400071EB0C01C1E70B46024641464846BDE848
:10045000F08B13B54FF000004FF00001AFF30080B8
:10046000BDE81C40704710B5203AC0F00B80B1E8E1
:100470001850203AA0E81850B1E81850A0E81850D9
:10048000BFF4F5AF5FEA027C24BFB1E81850A0E8E2
:10049000185044BF18C918C0BDE810405FEA827CFC
:1004A00024BF51F8043B40F8043B08BF7047D20713
:1004B00028BF31F8023B48BF11F8012B28BF20F8B4
:1004C000023B48BF00F8012B70474FF0000200B517
:1004D000134694469646203922BFA0E80C50A0E867
:1004E0000C50B1F12001BFF4F7AF090728BFA0E815
:1004F0000C5048BF0CC05DF804EB890028BF40F8E1
:10050000042B08BF704748BF20F8022B11F0804F22
:1005100018BF00F8012B7047704770477047754649
:1005200000F02CF8AE4605006946534620F007005F
:10053000854618B020B5FFF70DFFBDE820404FF00D
:1005400000064FF000074FF000084FF0000B21F0BD
:100550000701AC46ACE8C009ACE8C009ACE8C0098A
:10056000ACE8C0098D46704710B50446AFF3008073
:100570002046BDE81040FFF7D8BE00000048704795
:10058000CC02002401491820ABBEFEE72600020081
:100590007047FEE7164A012370B50020DD0402F122
:1005A0002401C2E90030C2E9020510610224506151
:1005B0009061D0614832C1E90040C1E9020508619B
:1005C00048618861C861243193601060D3605060D5
:1005D0000848C2E9043400F0B7FC064800220121B3
:1005E00000F03AFC034801F02CF90028FAD170BD64
:1005F000C000002450010024704772B6FEE70000DE
:10060000014800F0AFBD000050010024014800F097
:10061000A9BD000050010024F0B503684FF6FC713D
:100620006D4C426BD3F884508D4345EA8205C3F884
:100630008450036853F8845F068F25F47F0545EAEC
:1006400006451D60836B654D9F180268D2F888309F
:100650008B4343EA8703C2F88830026852F8883F28
:10066000868F23F4FE0343EA06431360066856F8B8
:10067000A03FC26B8B4307EB420243EA8203336025
:10068000076857F8A03FB0F8406023F4FE0343EA40
:1006900006433B60D0E9103603FB06220368D3F81B
:1006A000B0608E4346EA8206C3F8B0600368B0F8D3
:1006B0004860D3F8B07027F4FE0747EA0646C3F84F
:1006C000B060D0E91267036806FB0722D3F8AC607C
:1006D0008E4346EA8206C3F8AC60D0E9146703682B
:1006E00006FB0722D3F8F0608E4346EA8206C3F881
:1006F000F0600368B0F85860D3F8F07027F47C1706
:1007000047EA0646C3F8F0600368876D53F8C06F88
:1007100002EB47028E4346EA820119600168B0F895
:100720005C20D1F8C03023F47C1343EA0242C1F8C4
:10073000C020016890F86020D1F8C03023F07C53CD
:1007400043EA0262C1F8C020416B04EB8101C1663B
:10075000826B01EB82020267C36B02EBC30242674A
:10076000D0E91034634302EB83028267D0E912348C
:10077000634302EB8302C267D0E91434634302EBA4
:100780008302C0F88020836D02EBC303C0F884307D
:10079000C46D826E544303EB8403C0F88830046E4A
:1007A000544303EB8402C0F89020AA420AD9D0F83F
:1007B0009C20032142F02002C0F89C2080F8981071
:1007C0000120F0BD002200E004C1D0F890308B423F
:1007D000FAD80020F0BD000000AC0040FCD300407F
:1007E000F0B58E680C69D1E9005744EA0604DFB120
:1007F00045F080452C43866ED1E906C54F695E43BE
:1008000091F8203045EA0C05D0F884E00020D1F8BA
:100810000CC047EA03630D4F1D430EEB860345EA08
:100820000C05E3E802450AE044EA8544E3E71418CE
:10083000155C001DD4F8014045EA042410C3CC68BF
:1008400007EB144424788442F1D8F0BDF04D000841
:100850002DE9F84F044601F033F900903CB194F8CB
:100860003500022806D0802161650020E4E00120E7
:10087000BDE8F88FC74DC74EC649183520683036D9
:10088000DFF81483DFF814938842DFF814A3DFF84D
:1008900014B32ED0A8422CD0B0422AD0404528D044
:1008A000484526D0504524D0584522D0BD4A18325C
:1008B00090421ED0BC4A90421BD0BB4A1832904294
:1008C00017D0B94A3032904213D0B74A48329042DA
:1008D0000FD0B54A603290420BD0B34A7832904282
:1008E00007D0B14A9032904203D0AF4AA83290422A
:1008F00009D1026822F01E0202602068426922F0DB
:100900008002426103E0026822F00E020260276862
:100910008F4238464DD0A8424BD0B04249D04045D6
:1009200047D0484545D0504543D0584541D09D4AD1
:10093000183290423DD09C4A90423AD09A4A18329E
:10094000904236D0984A3032904232D0964A48325D
:1009500090422ED0944A603290422AD0924A783205
:10096000904226D0904A9032904222D08E4AA832AD
:1009700090421ED08D4A90421BD08C4A1432904235
:1009800017D08A4A2832904213D0884A3C3290428B
:100990000FD0864A503290420BD0844A6432904243
:1009A00007D0824A7832904203D0804A8C329742F4
:1009B00004D1206E026822F48072026075492068BA
:1009C000884228D0A84226D0B04224D0404522D028
:1009D000484520D050451ED058451CD0714918318B
:1009E000884218D07049884215D06F491831884222
:1009F00011D06D49303188420DD06B494831884261
:100A000009D069496031884205D067497831884208
:100A100001D065499031016821F0010101600EE0CB
:100A200001F04EF80099401A052808D92022626585
:100A30000321002084F8351084F8340017E7386863
:100A4000C007EDD1534A0121206890422ED0A84220
:100A50002CD0B0422AD0404528D0484526D0504519
:100A600024D0584522D04F4B183398421ED04E4BBD
:100A700098421BD04C4B1833984217D04A4B303316
:100A8000984213D0484B483398420FD0464B6033BE
:100A900098420BD0444B7833984207D0424B903366
:100AA000984203D0404BA833984208D194F85C7028
:100AB0003F23A06D07F01F07BB40836007E094F859
:100AC0005C30A06D03F01F0301FA03F3436020685C
:100AD00090424DD0A8424BD0B04249D0404547D07B
:100AE000484545D0504543D0584541D02D4A18324D
:100AF00090423DD02C4A90423AD02B4A1832904234
:100B000036D0294A3032904232D0274A4832904279
:100B10002ED0254A603290422AD0234A7832904221
:100B200026D0214A9032904222D01F4AA8329042C9
:100B30001ED01E4A90421BD01C4A1432904217D03D
:100B40001A4A2832904213D0184A3C3290420FD0B1
:100B5000164A503290420BD0144A6432904207D069
:100B6000124A7832904203D0104A8C3290420BD114
:100B7000D4E919024260E06E30B1026822F480725A
:100B80000260D4E91C024260002084F8351084F829
:100B900034006DE610000240580002407000024030
:100BA00088000240A000024010040240085402588D
:100BB0002DE9F05F28B190F83510022904D080218A
:100BC00041650120BDE8F09F904C904B0168183CB6
:100BD00018338E4ADFF83C92A1428D4CDFF838E2A0
:100BE0008E4FDFF83CB2DFF83CA28F4D8F4E31D0F4
:100BF00091422FD099422DD0A1422BD0494529D0E6
:100C0000714527D0B94225D0DFF810C20CF1180C7D
:100C100061451FD0DFF808C2ACF1600C614519D006
:100C2000DFF8FCC1ACF1480C614513D0DFF8F0C12E
:100C3000ACF1300C61450DD0DFF8E4C1ACF1180C1B
:100C4000614507D0594505D0514503D0A94201D08F
:100C5000B1422CD1DFF8B4C14FF0040880F83580E0
:100C6000ACF1180C61451DD091421BD0994219D0AE
:100C7000A14217D0494515D0714513D0B94211D0C2
:100C80006648183081420DD065486038814209D0ED
:100C900063484838814205D061483038814201D0EC
:100CA0005F481838086820F001000860ABE0D1F810
:100CB00000C02CF00E08DFF854C1C1F80080ACF180
:100CC000180C0168614527D0914225D0994223D064
:100CD000A14221D049451FD071451DD0B9421BD03A
:100CE000DFF838C10CF1180C614515D0DFF830C1C0
:100CF000ACF1600C61450FD0DFF824C1ACF1480CB9
:100D0000614509D0DFF818C1ACF1300C614503D062
:100D1000DFF80CC1ACF1180CD1F800C02CF0010CBC
:100D2000C1F800C0DFF8E4804FF0010C0168A8F1C1
:100D30001808414546D0914244D0994242D0A14240
:100D400040D049453ED071453CD0B9423AD0334AB3
:100D50001832914236D0324A603A914232D0304A0B
:100D6000483A91422ED02E4A303A91422AD02C4A0B
:100D7000183A914226D0594524D0514522D0A94253
:100D800020D0B1421ED02A4A91421BD0284A1432A8
:100D9000914217D0264A2832914213D0244A3C323D
:100DA00091420FD0224A503291420BD0204A6432F5
:100DB000914207D01E4A7832914203D01C4A8C32AD
:100DC000914218D1016E0A6822F480720A6090F88C
:100DD0005C20816D02F01F020CFA02F24A60D0E939
:100DE00019124A60C16E31B10A6822F480720A6039
:100DF000D0E91C124A600022016D80F835C080F8ED
:100E0000342001B188470020DCE6000028000240C1
:100E1000580002407000024088000240A0000240DA
:100E20007004024088040240A0040240B80402405A
:100E30000854025870B5044600F042FE0546601C96
:100E400002D004480078044400F03AFE401BA0425F
:100E5000FAD370BD6800002410B590F89830012BCB
:100E600009D0022B07D0D0F89C1041F00201C0F845
:100E70009C10012010BD03689C6D0C4203D1DC6DF9
:100E800044F0010404E09C6D31EA04041FD0032403
:100E9000DC658B0505D50368D3F8E0401443C3F83F
:100EA000E0404B0505D50368D3F8E4401443C3F88C
:100EB000E4400068084A01EA0203446D074A1C4303
:100EC0004465106840EA91701060002010BDDC6D30
:100ED00044F00204DCE70000FFFFCF3F14A800400D
:100EE00070B5044690F89800022804D0D4F89C000D
:100EF00040F008000DE02068D0F8C03013F07C5FAF
:100F00000BD0D0F8C4309B020CD5D4F89C0040F430
:100F10000070C4F89C00012070BDD4F89C0040F023
:100F20002000F6E7D0F8C400C0F3044520462B4665
:100F3000FFF756FC21680120A840C1F8D000C4F892
:100F40009400002070BD704770B590F89820012A79
:100F500009D0022A07D0D0F89C1041F00201C0F855
:100F60009C10012070BD0B68CA6883B10B69072A09
:100F700043EA427325D00C7A4A6942EA847249688E
:100F8000006F00EBC100C0E90032002070BD072AED
:100F90000DD00C7AD6060D8A4B6943EA847246EA74
:100FA0000543C06E49681A4340F82120EDE70B8ADB
:100FB0004FF06055D1E9062442EA034245EA042392
:100FC000EFE78A69DBE7704770470000F0B590F8FB
:100FD00098400025022C04D0D0F89C1041F0080164
:100FE0002BE040294FF0004605D0412929D0046D5F
:100FF0008C4219D942E00468D4F8A07017F4FE0FAF
:1010000012D0D4F8A4707F0613D0D4F8A470FF01D6
:1010100005D5D4F8A070B6EBD77F00D10125D4F860
:10102000A470466F446C24E0D0F89C1041F020017D
:1010300003E0D0F89C1041F48071C0F89C100120AE
:10104000F0BD0468D4F8B07017F4FE0FECD0D4F8FB
:10105000B4707F06EDD0D4F8B470FF0105D5D4F894
:10106000B070B6EBD77F00D10125D4F8B470866F8D
:10107000C46CC7F305273D446C4302E0446DC66F62
:101080004C4306EB8404266816F0804656602668BA
:1010900036D026F060461660D4F800C000262F4FE8
:1010A0000CF0005CC2F808C0D4F800C00CF0004C92
:1010B000C2F810C0B4F804C01FFA8CFCC2F81CC0FF
:1010C000D4F804C00CF4702CC2F80CC0D4F804C0DE
:1010D0000CF4801CC2F814C0D4F804C00CF4001C3A
:1010E000C2F818C0D4F804C0CCF3066CC2F820C013
:1010F000D4F804C008344FEADC7CC2F824C008E00D
:10110000C6F38A46C7E700BF14F806C003F806C056
:10111000761CD2F80CC007EB1C4C9CF800C0B44500
:10112000F2D840290AD041290CD020294FF00102E1
:101130000CD200688A40C0F898200DE00068C0F822
:10114000A85009E00068C0F8B85005E0006801F058
:101150001F018A40C0F89C200020F0BDF04D00081F
:10116000704700002DE9FC5FDFF804B30446006817
:101170000BF104028246DBF80070D2F80080026DA9
:10118000416D036D466DD0F85090456DD0F850C05C
:1011900009F0F00005EA0009DAF85450DAF85000D6
:1011A00000F0607EB80700EA88700090DAF85470AA
:1011B000DAF8548002F4704003F00F02014001910C
:1011C0000CF071535FEAC85106EA020605EA03050E
:1011D00007EA0E070DD5DAF85000C00509D5002141
:1011E0004FF48073CAF85030CBF800102046FFF758
:1011F000B7FF2068416D490511D5016D49050ED530
:10120000D0F8DC20D0F8E41000234FF48068C0F858
:1012100050801140CBF80030204600F031FBDFF861
:101220005482009850B12268830F00EA08001065CC
:10123000CBF8003020460099FFF785FE019850B1A9
:101240002268830F00EA08001065CBF800302046C2
:10125000019900F017FB56B12268B30F06EA0800A7
:101260001065CBF800303146204600F07FFAB9F126
:10127000000F0BD022684FEA997309EA0800106545
:10128000CBF800304946204600F0DAFA2068416D7C
:1012900009050BD5016D090508D500214FF4006340
:1012A0000365CBF80010204600F0EDFA2068416D90
:1012B000890511D5016D89050ED5D0F8D820D0F853
:1012C000E01000234FF4007CC0F850C01140CBF870
:1012D0000030204600F0D5FA2068416D09030BD597
:1012E000016D090308D500214FF400230365CBF8F5
:1012F0000010204600F038FA2068416DC9030BD574
:10130000016DC90308D500214FF480330365CBF884
:101310000010204600F0B3FA2068416D49030BD558
:10132000016D490308D500214FF480230365CBF8F4
:101330000010204600F0A2FA2068416D89030ED506
:10134000016D89030BD500214FF400330365CBF801
:101350000010D4F89C0040F08000C4F89C0057B105
:101360002268BB0F07EA08001065CBF80030394649
:101370002046FFF729FE5DB12268AB0F05EA0800A1
:101380001065CBF80030D4F89C002843C4F89C00CA
:1013900039492068884262D1606881468068800748
:1013A0005DD0D9F82060D9F82410D9F82080D9F878
:1013B0002400D9F82030D9F82470D9F82020D9F8A1
:1013C0002450D9F820C002F4FC4206F00F0AD9F8E4
:1013D0002460154008F0300803F4C0730CF4F02CBE
:1013E00011EA0A0100EA080807EA030706EA0C0600
:1013F00004D0C9F82010204600F03DFAB8F10000F2
:1014000005D0616808624146204600F036FA6068FF
:10141000416A49060CD5016A490609D5C16BC26B00
:1014200040230362090C204602F03F0200F024FA38
:101430002FB1606807623946204600F01BFA35B1CB
:1014400060680562D4F89C002843C4F89C0036B15B
:1014500060680662D4F89C003043C4F89C00D4F85D
:101460009C00002802D02046FFF7ADFDBDE8FC9FA0
:1014700010A80040FFFFCF3F00A000402DE9F04141
:1014800094B08D494C2204466846FEF7ECFF64B1E7
:101490008A4D2068A84202D100F58070606094F8FF
:1014A00098004FF0000820B108E0012014B0BDE81A
:1014B000F081204684F8998000F002F92068816963
:1014C00021F01001816100F0FBFA0327064604E0D9
:1014D00000F0F6FA801B0A2811D8206880690007FE
:1014E000F6D42068816941F00101816100F0E8FAD9
:1014F00006460DE000F0E4FA801B0A2808D9D4F86B
:101500009C0040F00100C4F89C0084F89870CCE77F
:1015100020688069C007EDD02068816941F0020130
:101520008161207C01282068816937D041F0400129
:101530008161607C01282068816932D021F480417A
:101540008161A07C0128206881692DD041F48051FF
:1015500081612068A268816921F440711143816131
:101560002068816921F0A40181612068016921F06E
:1015700010010161E068012819D010B302281BD0C6
:101580002068816941F0800181612068016941F032
:1015900010010161E06803280ED012E021F0400143
:1015A000C6E741F48041CBE721F48051D0E72068C1
:1015B000816941F0040103E02068816941F0200164
:1015C0008161207E6FF0FF02D4E90773A68A1102C1
:1015D000400602EB0727A0F10070384327685B1E26
:1015E000184301EB06463043F861A068B0F5407F30
:1015F00011D104F12800A68C6FF00F0C89C801EB03
:101600000641401E02EB0322104322680CEB071335
:1016100018430843D060206E30B12068626ED0F865
:10162000C0101143C0F8C010D4E917126846D14267
:1016300009D02168A36E51F8C82F50F8233022F04A
:1016400007021A430A60216C49B12168626C51F8A3
:10165000BC3F50F8226023F0070232430A60A16CBD
:1016600051B12168E36C51F8BC2F50F8233022F0BF
:10167000700242EA03120A60216D51B12168626D65
:1016800051F8BC3F50F8220023F4E06242EA002007
:1016900008602068A84204D16068816821F00301D5
:1016A0008160C4F894800121C4F89C8084F898106B
:1016B0002046FEF7B1FFF9E6004E000800A000400A
:1016C00010B5B6B0044614212FA8FEF7FEFEBC21CB
:1016D0006846FEF7FAFE2149206888423BD14FF464
:1016E00000400090410368461B9100F013FC08B1D4
:1016F000FEF783FF1A48016841F4807101600068B9
:1017000000F48070349016480C38016841F00101F3
:10171000016000680923022200F0010034900020DB
:10172000CDE932034FF4C0512F91CDE930200D485F
:101730002FA900F0A9F800221320114600F038FA72
:10174000132000F027FA00221520114600F030FA8D
:10175000152000F01FFA36B010BD000000A00040B8
:10176000EC440258000002587047000070B5C907E9
:101770004FF0000425D0304B4021304AFFF726FCC3
:101780002E4A2D48A2F1A8011268022A1AD0012A75
:1017900017D102787AB3012A13D0022A11D1D0F8D6
:1017A00001504279037928BA012A20F0FF0040EA6B
:1017B00003003ED0002A04D14042086062EB0402DC
:1017C0004A6070BD0278BAB1012AFAD0022AF8D173
:1017D000D0F801504279037928BA012A20F0FF009D
:1017E00040EA030015D0002AEBD14042086162EBC9
:1017F00004024A6170BD0FE042790A77002AF9D1EC
:10180000B0F8012052BA0A83B0F8030040BA488306
:10181000F0E708614C61EDE742790A73002AE9D1EB
:10182000B0F8012052BA0A81B0F8030040BA4881EA
:10183000E0E708604C60DDE7000000242801002498
:10184000704790F89810012907D0D0F89C1041F00B
:101850000401C0F89C1001207047022180F8981004
:10186000002201688B6923F001038B61C0F89C2082
:101870001046704770477047704770477047704711
:1018800070477047704770472DE9F84F03247D4D2E
:1018900000234FF001094FF0B04B4FF00F0AE9E081
:1018A00009FA03F73A4076D00E7906F00306012EC6
:1018B00001D0022E18D1D0F808C04FEA430ECE68EE
:1018C00004FA0EF82CEA080C06FA0EF646EA0C06A4
:1018D0008660D0F804C00E792CEA070CC6F3001617
:1018E0009E4046EA0C0646600E79F643B6070BD0DA
:1018F000C6684FEA43088F6804FA08FC26EA0C061B
:1019000007FA08F73743C7600E7906F00306022E80
:1019100012D1DE080F694FEA437C00EB8606B6461B
:10192000366A4FEADC6C0AFA0CF807FA0CF726EA7A
:1019300008063743CEF820700F7906684FEA43084F
:1019400007F0030704FA08FC07FA08F726EA0C0672
:10195000374307604E6816F4403F1CD04A4E376844
:1019600047F00207376036689F0706F002060096C8
:1019700023F0030606F1B046B6463F0FD6F80864DA
:10198000DFF808810AFA07FC404526EA0C0603D175
:101990004FF0000C41E06CE0DFF8F4C0604502D18C
:1019A0004FF0010C39E0DFF8ECC0604502D14FF098
:1019B000020C32E0DFF8E0C0604502D14FF0030CCA
:1019C0002BE0DFF8D8C0604502D14FF0040C24E0D2
:1019D000DFF8CCC0604502D14FF0050C1DE0DFF808
:1019E000C4C0604502D14FF0060C16E0DFF8B8C065
:1019F000604502D14FF0070C0FE0DFF8B0C0604542
:101A000002D14FF0080C08E0DFF8A4C0604502D115
:101A10004FF0090C01E04FF00A0C0CFA07FC4CEAFD
:101A2000060CCEF808C44F68DBF80060FF0226EA17
:101A3000020600D516435F46CBF80060D1F804C01B
:101A4000DBF804605FEA8C2C26EA020600D5164318
:101A50007E606E684F6826EA0206BF0300D5164313
:101A60006E602E684F6826EA0206FF0300D5164313
:101A70002E605B1C0A6832FA03F67FF411AFBDE8F2
:101A8000F88F000080000058F4440258000002580B
:101A90000004025800080258000C025800100258B6
:101AA0000014025800180258001C02580020025866
:101AB0000024025801480068000C70470010005CC8
:101AC000014880687047000068000024024881686F
:101AD000027811448160704768000024032010B52B
:101AE00000F086F800F0F4FF0F4A104914681368FC
:101AF000C4F3032203F00F038A5CC95C02F01F02E7
:101B000001F01F01D0400A4A20FA01F11160094991
:101B100008600F2000F010F808B1012010BD00F09F
:101B20002BF8002010BD000018440258744E000825
:101B3000780000247400002470B50D4D0446287808
:101B4000A0B14FF47A71B1FBF0F00A490968B1FB1A
:101B5000F0F001F0F1FA48B9102C07D2002221462A
:101B6000501E00F025F800206C6070BD012070BD93
:101B70006800002474000024054808B5016841F09D
:101B800002010160006800F00200009008BD000042
:101B9000F4440258002809DB410900F01F028900C3
:101BA000012001F1E0219040C1F8000170470000E0
:101BB0000E4BF0B41B680D46C3F30223C3F10706B6
:101BC000042E00D90426191D072901D2002300E0A4
:101BD000DB1E012404FA06F19C40491E2940641EC4
:101BE000994014402143F0BC03F09AB80CED00E09A
:101BF000064900F0070210B54FF6FF040868044BD1
:101C0000204040EA02201843086010BD0CED00E0BF
:101C10000000FA05134970B50A68D243520705D58A
:101C2000096801F00701814213D118E00A6822F027
:101C3000070202430A60FFF743FF0A4D4FF47A762A
:101C40000446083D07E000BFFFF73AFF001BB04223
:101C500001D9012070BD2868C0438004F4D400205D
:101C600070BD00000C48025810B500F0EBFE0549AD
:101C70000968054AC1F30211515C01F01F01C84017
:101C800010BD000020440258744E0008494930B588
:101C9000484C0B1D0A68143409681D68246802F05A
:101CA0000303C5F30012C1F30531C4F3CC040029CA
:101CB00014FB02F200EE102AF8EE400A75D03F4AFB
:101CC0009FED3D1AB7EE000A6BB1DFED3D1A012B17
:101CD00001D0022B64D002EE101A1168F8EE422AED
:101CE00081EEA22A21E0334C283C23689B0612D5C2
:101CF000344B246801EE901A1168C4F3C104F8EE65
:101D0000612AE34001EE903AC1F30801F8EE611A4E
:101D100081EEA22A0BE001EE901ADFED2B2A00BF24
:101D2000F8EE611A116882EEA12AC1F3080101EEF2
:101D3000901A1168F8EE611A40EE811A71EE800A6D
:101D400062EE200AC1F3462101EE101AB8EE411AE4
:101D500031EE001AC0EE811ABCEEE11A80ED001AD5
:101D60001168C1F3064101EE101AB8EE411A31EEC6
:101D7000001AC0EE811ABCEEE11A80ED011A11685A
:101D8000C1F3066101EE101AB8EE411A31EE000AF5
:101D900080EE801ABCEEC10A80ED020A30BD04E07C
:101DA00001EE901ADFED092ABAE7002101604160D7
:101DB0008160F3E728440258000000393844025893
:101DC0000024744A0090D0030024744C20BCBE4B05
:101DD000494930B5484C0B1D0A681C3409681D6818
:101DE000246802F00303C5F30022C1F30551C4F3D4
:101DF000CC04002914FB02F200EE102AF8EE400A8F
:101E000075D03F4A9FED3D1AB7EE000A6BB1DFED8A
:101E10003D1A012B01D0022B64D002EE101A11687A
:101E2000F8EE422A81EEA22A21E0334C283C2368B6
:101E30009B0612D5344B246801EE901A1168C4F346
:101E4000C104F8EE612AE34001EE903AC1F30801C3
:101E5000F8EE611A81EEA22A0BE001EE901ADFED96
:101E60002B2A00BFF8EE611A116882EEA12AC1F395
:101E7000080101EE901A1168F8EE611A40EE811A1D
:101E800071EE800A62EE200AC1F3462101EE101ABB
:101E9000B8EE411A31EE001AC0EE811ABCEEE11A1A
:101EA00080ED001A1168C1F3064101EE101AB8EE78
:101EB000411A31EE001AC0EE811ABCEEE11A80ED33
:101EC000011A1168C1F3066101EE101AB8EE411A49
:101ED00031EE000A80EE801ABCEEC10A80ED020AE3
:101EE00030BD04E001EE901ADFED092ABAE70021C7
:101EF000016041608160F3E7284402580000003926
:101F0000404402580024744A0090D0030024744CCA
:101F100020BCBE4B2DE9FC5F044650F8241B002575
:101F200000902E460801FE4FDFF8F8831DD5606E45
:101F300050B1B0F5801F0CD0B0F5001F0ED0B0F539
:101F4000401F1DD001250FE0386840F40030386094
:101F500016E00221201D01F02FFF03E0009802216E
:101F600001F0BAFF05000BD02E462088C00523D50E
:101F7000606D05281ED2DFE800F00C11161B1B0057
:101F8000626ED8F8001021F440111143C8F8001017
:101F9000EBE7386840F40030386009E00021201D8C
:101FA00001F00AFF03E00098002101F095FF0546CB
:101FB0006DB100E001252E462088800528D5A06D52
:101FC00080281ED00CDC90B140280ED114E0626D48
:101FD000D8F8001021F007011143C8F80010EBE712
:101FE000C02813D0B0F5807F10D001250FE03868ED
:101FF00040F40030386009E00021201D01F0DCFED3
:1020000003E00098002101F067FF054695B12E46D8
:102010002088DFF81093400509F108092CD5D4F881
:10202000A400B0F5800F20D00DDCA0B1B0F5001FEA
:102030000FD115E0A26DD8F8001021F4E071114322
:10204000C8F80010E4E7B0F5C00F13D0B0F5000FEA
:1020500010D001250FE0386840F40030386009E006
:102060000021201D01F0A8FE03E00098002101F0EE
:1020700033FF054675B12E46208800052DD5D4F8CE
:10208000A800B0F1007F21D00EDCA8B1B0F1807FB4
:1020900010D116E0D4F8A420D9F8001021F4600182
:1020A0001143C9F80010E7E7B0F1407F13D0B0F159
:1020B000806F10D001250FE0386840F400303860A0
:1020C00009E00021201D01F077FE03E000980021C7
:1020D00001F002FF05466DB12E46206880011FD534
:1020E000A06CD8B110280FD0202812D0302815D0DD
:1020F000012514E0D4F8A820D9F8001021F0E061FF
:102100001143C9F80010E8E7386840F4003038603F
:1021100004E00221201D01F04FFE05466DB12E4660
:102120002088C0042BD5E06DB0F5005F20D00DDC19
:10213000A0B1B0F5805F0FD115E07A48A26C001F06
:10214000016821F0300111430160E9E7B0F5405F1B
:1021500013D0B0F5804F10D001250FE0386840F45F
:102160000030386009E00021201D01F025FE03E069
:102170000098002101F0B0FE054685B12E4620886A
:10218000800429D5206EB0F5403F23D010DC08B381
:10219000B0F5803F14D0B0F5003F0FD115E0E26DEF
:1021A000D8F8001021F4E0411143C8F80010E6E728
:1021B000B0F5802F0ED0B0F5A02F0BD001250AE08E
:1021C0000121201D01F0F8FD03E00098012101F03C
:1021D00083FE05468DB12E46208840042AD5D4F8CA
:1021E000AC00B0F1405F23D010DC08B3B0F1805FE9
:1021F00014D0B0F1005F0FD115E0226ED8F80010B6
:1022000021F4E0211143C8F80010E5E7B0F1804F58
:102210000ED0B0F1A04F0BD001250AE00121201D06
:1022200001F0CAFD03E00098012101F055FE0546CA
:102230006DB12E46208800041FD5E06ED8B1B0F1F4
:10224000805F0ED0B0F1005F10D0012514E0D4F80B
:10225000AC20D9F8001021F0E0411143C9F800107A
:10226000E8E7386840F40030386004E00121201DC0
:1022700001F0A2FD05466DB12E462068C0011ED5B5
:10228000606CD0B101280ED0022811D0032814D0E0
:10229000012513E0E26ED8F8001021F040511143FF
:1022A000C8F80010E9E7386840F40030386004E00E
:1022B0000221201D01F080FD054685B12E462068D3
:1022C000DFF85CB04002ABF11C0B57D51648016833
:1022D00041F480710160FFF7F3FB82460EE0114884
:1022E000626C001F016821F0030111430160E6E701
:1022F000FFF7E6FBA0EB0A0064283DD80A48006817
:10230000C005F5D57DBBDFF81CA0B4F8B0200AF1FC
:10231000200ADAF8001002F4407001F4407105E080
:102320002C4402585044025800480258814211D0AF
:10233000DAF80010DAF8002021F4407142F480321B
:10234000CAF80020DAF8002022F48032CAF800200F
:10235000CAF80010D4F8B000B0F5807F21D1FFF7A3
:10236000AFFB019019E008E0FFF7AAFB0199411AC1
:1023700041F28830814210D903252E462078DFF8BB
:1023800044A4C0073DD0A06F182838D026DC80B305
:10239000082829D0102825D12CE0DAF80000800781
:1023A000E2D5D4F8B010C1F30120032858460DD06F
:1023B000016821F47C510160B4F8B020DAF8001013
:1023C000C2F30B021143CAF80010D7E7FE4A0368B4
:1023D00002EA111223F47C511143ECE720280ED0BD
:1023E00028280CD001250BE00121201D01F0E4FC80
:1023F00004E004E00098012101F06EFD05465DB1A6
:102400002E46207880071ED5606F062819D2DFE897
:1024100000F0160C11161616A26FDAF8001021F053
:1024200038011143CAF80010EBE70121201D01F02B
:10243000C3FC03E00098012101F04EFD054675B193
:1024400000E001252E46207840071FD5D4F89000E3
:10245000062819D2DFE800F0160C11161616626F66
:10246000DAF8001021F007011143CAF80010EAE77A
:102470000121201D01F0A0FC03E00098012101F0E2
:102480002BFD05469DB100E001252E4620788006F3
:102490002BD5D4F88C00B0F1405F24D011DC10B300
:1024A000B0F1805F15D0B0F1005F10D116E0D4F824
:1024B0009020D9F8001021F007011143C9F800104D
:1024C000E4E7B0F1804F0ED0B0F1A04F0BD0012562
:1024D0000AE00021201D01F06FFC03E000980221BA
:1024E00001F0FAFC05468DB12E46207840062BD52A
:1024F000D4F89800B0F5406F24D011DC10B3B0F5DB
:10250000806F15D0B0F5006F10D116E0D4F88C2094
:10251000DAF8001021F0E0411143CAF80010E4E7B6
:10252000B0F5805F0ED0B0F5A05F0BD001250AE0BA
:102530000021201D01F040FC03E00098022101F081
:10254000CBFC05468DB12E46207800062BD5D4F85D
:102550009C00B0F5C04F24D011DC10B3B0F5005F83
:1025600015D0B0F5804F10D116E0D4F89820D9F8E6
:10257000001021F4E0511143C9F80010E4E7B0F570
:10258000004F0ED0B0F5204F0BD001250AE00021FE
:10259000201D01F011FC03E00098022101F09CFCD9
:1025A00005464DB12E46207800071ED5D4F8800090
:1025B000B0F5805F0AD00FE0D4F89C20D9F8001065
:1025C00021F460411143C9F80010ECE700980221A2
:1025D00001F082FC00B10126D4F88020DAF8001066
:1025E00021F440511143CAF800102078C00613D5D9
:1025F000D4F89400B0F5807F05D10098022101F055
:102600006BFC00B10126D4F89420D9F8001021F415
:1026100040711143C9F800102068000316D5D4F8A2
:10262000A00038B1B0F5803F09D0B0F5003F0BD025
:1026300001250AE00021201D01F0BEFB03E0009807
:10264000022101F049FC054685B12E462068400371
:1026500022D5D4F88400B0F5801F11D0B0F5001F4A
:1026600013D0B0F5401F15D0012514E0D4F8A020F8
:10267000D9F8001021F440311143C9F80010E5E702
:10268000386840F40030386004E00098012101F01F
:1026900023FC054655B12E462068C0031CD5E06CCE
:1026A00070B1B0F5803F10D0012514E0D4F884203B
:1026B000DAF8001021F440111143CAF80010EBE7DA
:1026C000386840F40030386004E00221201D01F039
:1026D00073FB0546CDB12E462068800005D50098D5
:1026E000022101F0F9FB00B10126206880031BD50F
:1026F000E06FB8B1B0F5807F10D0B0F5007F11D099
:10270000B0F5407F0ED001250DE02E48E26C083870
:10271000016821F4803111430160DDE7386840F43D
:1027200000303860F5B32E462068C00207D5226F0E
:10273000D8F8001021F000411143C8F800102068BB
:10274000C00008D5D4F8B420DBF8001021F4804193
:102750001143CBF800102068800207D5A26ED8F88C
:10276000001021F080711143C8F80010206840006B
:102770000CD5DBF8001021F40041CBF80010DBF899
:102780000010D4F8B8201143CBF8001020680028BE
:1027900007DA0C48226D0838016821F040511143D6
:1027A000016000E014E02068000208D5D4F8882019
:1027B000DAF8001021F440011143CAF8001086B184
:1027C000012003E054440258CFFFFF00BDE8FC9F06
:1027D000E26FDAF8001021F440711143CAF80010DA
:1027E000A2E70020EDE700002DE9F05F04000F46AE
:1027F0007ED0DFF83882D8F8000000F00F00B84231
:102800000CD2D8F8001021F00F013943C8F800109D
:10281000D8F8000000F00F00B84269D12078844D4C
:1028200040070AD52069296801F07001884204D95F
:10283000296821F070010143296020787C4E361D03
:1028400000070AD56069316801F07001884204D937
:10285000316821F07001014331602078C0060AD54B
:10286000A069316801F4E061884204D9316821F43B
:10287000E061014331602078DFF8B4B180060BF1EC
:10288000080B0CD5E1695846DBF8002002F0700215
:10289000914204D9026822F070020A430260207853
:1028A00080070AD5E068296801F00F01884204D941
:1028B000296821F00F01014329602078C0073ED02C
:1028C0005B49A2682868183920F4706010432860BA
:1028D0006068022818D0032819D00968012819D087
:1028E000490700294ADADFF848A1AAF1080A00E0FE
:1028F00044E0DAF8002022F007020243CAF8002080
:10290000FFF7DEF8814612E009688903E9E7096804
:102910008901E6E7C905E4E7FFF7D2F8A0EB090172
:1029200041F28830814202D90320BDE8F09F6168FE
:10293000DAF8000000F03800B0EBC10FECD12078DD
:1029400080070AD5E068296801F00F01884204D2A7
:10295000296821F00F0101432960D8F80010404692
:1029600001F00F01B9420BD9016821F00F01394381
:102970000160006800F00F00B84201D00120D4E7E8
:10298000207840070AD52069296801F07001884243
:1029900004D2296821F070010143296020780007E2
:1029A0000AD56069316801F07001884204D231684B
:1029B00021F07001014331602078C0060AD5A0697A
:1029C000316801F4E061884204D2316821F4E061A9
:1029D00001433160207880060CD5E1695846DBF868
:1029E000002002F07002914204D2026822F07002CC
:1029F0000A43026000F06CF80E492A682B68C2F3A3
:102A0000032203F00F038A5CC95C02F01F0201F08D
:102A10001F01D040084A20FA01F1116007490860FF
:102A200007480068BDE8F05FFFF786B80020005255
:102A300018440258744E00087800002474000024E2
:102A40006C00002430B500F043F80B4A0B490C4BE6
:102A500015681468C5F3032204F00F048A5C095D4D
:102A600002F01F0201F01F01D040064A20FA01F1D6
:102A700019601060084630BD18440258744E0008B2
:102A8000780000247400002400B5FFF7DBFF05493F
:102A90000968054AC1F30211515C01F01F01C840E9
:102AA00000BD00001C440258744E000800B5FFF73A
:102AB000C9FF05490968054AC1F30221515C01F0CB
:102AC0001F01C84000BD00001C440258744E00089D
:102AD000454970B545480968434B103B11F0380231
:102AE00008D00111082A03D0102A0BD0182A0BD0C5
:102AF000084670BD19688906FBD51968C1F3C10184
:102B0000C84070BD3A4870BD3749374D18310C1D6B
:102B100024350A68096826682D6802F0030406F067
:102B20000102C1F30511C5F3CC0515FB02F200EE5D
:102B3000102AB8EE400AE9B32F4ADFED2E0AB7EEAD
:102B4000001A6CB1DFED2D1A012C01D0022C43D0FC
:102B500002EE101A1068F8EE422A81EEA22A1EE058
:102B60001C68A40611D51B6801EE901A1168C3F306
:102B7000C103F8EE612AD84001EE900AC1F30800C3
:102B8000F8EE611A81EEA22A0BE001EE901ADFED59
:102B90001C2A00BFF8EE611A106882EEA12AC0F369
:102BA000080001EE900AF8EE611A40EE201A31EEAC
:102BB000810A00E015E022EE000A1068C0F346200A
:102BC000401C00EE900AF8EE600A80EE201ABCEE7F
:102BD000C10A10EE100A70BD01EE901ADFED092A4D
:102BE000D8E7002070BD0000104402580090D003C8
:102BF00040787D0100000039304402580024744AB6
:102C00000024744C20BCBE4B2DE9F05F04007DD045
:102C1000FF4F2078FE4D1837DFF8F493103DC007C2
:102C200048D0D9F80000396800F03800102815D0D5
:102C3000182803D101F0030002280FD06068B0F516
:102C4000803F12D010B1B0F5A02F18D0286820F422
:102C500080302860286820F4802009E028688003FC
:102C600028D560680028D2D024E0286840F480305D
:102C70002860606888B1FEF723FF064609E02868EF
:102C800040F480202860F0E7FEF71AFF801B6428DC
:102C90006FD828688003F7D50CE0FEF711FF0646D1
:102CA00005E000BFFEF70CFF801B6428F0D8286801
:102CB0008003F7D4207841F20308D54E0C3E8007FC
:102CC00069D5D9F80000396810F038000ED01828FE
:102CD00001D188070AD0E06890B3296821F0190172
:102CE00001432960FEF7ECFE824631E02868400788
:102CF00002D5E06800288AD0E168286820F0190031
:102D000008432860FEF7DCFE824607E0DFE000BFF4
:102D1000FEF7D6FEA0EB0A000228B9D828684007C3
:102D2000F6D500BFFEF7C6FE40451BD820694028F7
:102D300012D0316821F47C3141EA003030602AE061
:102D400018E000BFFEF7BCFEA0EB0A0002289FD8E7
:102D500028684007F6D5E5E7306820F47C3040F479
:102D60000030EBE7207C316821F0FE4141EA006051
:102D7000E4E70DE1286820F001002860FEF7A0FEDE
:102D8000824605E0FEF79CFEA0EB0A0002288DD8E3
:102D900028684007F6D42078C0065DD5D9F8000031
:102DA000DFF86CB2396800F03800ABF1040B08288A
:102DB00010D0182803D101F0030001280AD0E069DF
:102DC0000028286838D040F080002860FEF778FEA0
:102DD000824623E02868C00523D5E069802876D1A3
:102DE0001FE0206A202821D0316821F0F84141EA13
:102DF0008060306030E000BF94F82010DBF80020E5
:102E000022F07C5242EA0161CBF8001024E000BFBE
:102E1000FEF756FEA0EB0A00022898D82868C005E5
:102E2000F6D5FEF747FE4045E6D8DAE7306820F0F1
:102E3000F84040F08040DCE720F080002860FEF79A
:102E40003FFE064605E000BFFEF73AFE801B022863
:102E50009DD82868C005F7D42078000729D56C488C
:102E60006169643000298046016811D041F0010198
:102E70000160FEF725FE064605E000BFFEF720FED6
:102E8000801B0228C9D8D8F800008007F6D510E0CA
:102E900021F001010160FEF713FE064605E000BFC8
:102EA000FEF70EFE801B022872D8D8F800008007BB
:102EB000F6D42078800623D5A0690028286810D091
:102EC00040F480502860FEF7FBFD064605E02CE14B
:102ED000FEF7F6FD801B02285AD828688004F7D533
:102EE0000EE020F480502860FEF7EAFD064604E07C
:102EF000FEF7E6FD801B02284AD828688004F7D434
:102F0000207840074FD5DFF80C81D8F8001041F445
:102F10008071C8F80010FEF7D3FD064605E000BF3B
:102F2000FEF7CEFD801B642832D8D8F80000C0051B
:102F3000F6D5374EA068603601280AD008B10528BA
:102F400013D0306820F001003060306820F00400B9
:102F500002E0306840F001003060A06841F2883A39
:102F600090B1FEF7ADFD80460AE0306840F0040005
:102F70003060EEE7FEF7A4FDA0EB0801514507D84D
:102F800030688007F6D50EE0FEF79AFD804607E030
:102F900084E000BFFEF794FDA0EB080151457DD809
:102FA00030688007F6D4606AB0B3DFF86480D9F87F
:102FB000001008F12008C1F3C20103296FD00228D4
:102FC000286820F08070286003D0FEF779FD044661
:102FD00080E0FEF775FD064605E000BFFEF770FDD8
:102FE000801B022873D828688001F7D4E26A40F277
:102FF000F331386854F8283F884340EA02101843F8
:103000003860217B4FF4FE0C22894FF0FE4704E02C
:10301000104402580048025889E0208A4902521E92
:10302000267DA1F5007189B2401EC2F3080211434A
:10303000761E0CEA004001433E4807EA066211434F
:103040003C4AC8F800100832016821F00101016013
:1030500011684FF6F876236AB14341EAC301116063
:103060000168A26921F00C01114301600168E26965
:1030700021F0020111430160016841F480310160D7
:10308000016841F400310160016841F48021016070
:10309000016841F001010160286801E017E01DE0CE
:1030A00040F080702860FEF70BFD044605E000BF8D
:1030B000FEF706FD001B022809D828688001F7D515
:1030C00035E000BFFEF7FCFC001B022802D90320FC
:1030D000BDE8F09F28688001F4D428E03968012811
:1030E000D8F8000021D0A26A01F0030393421CD15A
:1030F000E26AC1F305118A4217D1216BC0F30802BD
:10310000491E8A4211D1616BC0F34622491E914289
:103110000BD1A16BC0F30642491E914205D1E16B70
:10312000C0F30660491E814201D00120D0E7002093
:10313000CEE700002C440258401EB0F1807F10B54D
:1031400001D3012010BD4FF0E02460610F21601712
:1031500001F0E6FD0020A0610721216110BD000003
:10316000F0B590F83C20012A3BD01F4E012480F896
:103170003C40022280F83D2002681C4D5368B24258
:10318000D2F808C001D0AA4203D14F6823F47003DB
:103190003B430F6823F070031F4357600268B2423D
:1031A00013D0B2F1804F10D0114B9A420DD0114B79
:1031B0009A420AD0104B9A4207D0AA4205D00F4B30
:1031C0009A4202D00E4B9A4204D189682CF08003B7
:1031D00019439160002180F83D4080F83C1008467A
:1031E000F0BD0220F0BD00000000014000040140DD
:1031F0000004004000080040000C0040001800409F
:103200000040014010B5040003D094F83D0010B117
:1032100007E0012010BD002084F83C00204600F0AB
:1032200023F8022084F83D002068211D01F00AF8EF
:10323000012084F8480084F83E0084F83F0084F8B8
:10324000400084F8410084F8420084F8430084F888
:10325000440084F8450084F8460084F8470084F868
:103260003D00002010BD000008B50068B0F1804F9F
:1032700008D10548016841F001010160006800F0D3
:103280000100009008BD0000E844025870B50446F3
:1032900090F83C000025012814D03A4B012684F810
:1032A0003C60022084F83D0022689068184020F4B9
:1032B0007F409060086870282FD010DC10F00F0F4E
:1032C00003D022E04FF0020070BD4FEA2012072A1F
:1032D0001BD2DFE802F0535353534B394100B0F196
:1032E000101F4BD009DCB0F5805F0FD0B0F5005F48
:1032F0001ED0B0F5801F08D140E0A0F58011203924
:103300003CD010293AD0202938D0012584F83D60DE
:10331000002084F83C00284670BD4A682068D1E946
:10332000021300F0FEFF2068816841F0770109E098
:103330004A682068D1E9021300F0F3FF2068816831
:1033400041F480418160E1E7CA684968206801F082
:1033500097F92068502106E0CA684968206801F0A2
:10336000A0F92068602100F0E5FFCFE7CA6849684E
:10337000206801F085F920684021F4E722680146C1
:103380001046F0E788FFCEFF70B586B004461421E2
:103390006846FDF79AF82068B0F1804F27D11548AC
:1033A000016841F001010160016801F0010105912E
:1033B000016841F0020101600068002401266946AD
:1033C00000F0020005902020009002250A48CDE977
:1033D0000154CDE90346FEF757FA08200090CDE9E5
:1033E000015406486946CDE90346FEF74DFA06B09A
:1033F00070BD0000E044025800000258000402586A
:1034000070B5044690F83C0000260D4601280BD00C
:10341000012084F83C000C2A4AD007DC82B1042A3F
:1034200020D0082A06D131E0022070BD102A53D0E6
:10343000142A63D00126002084F83C00304670BD79
:10344000206800F081FF2068816941F008018161F6
:103450002068816921F00401816120682A698169FD
:10346000114311E0206800F0C3FF2068816941F436
:10347000006181612068816921F480618161206837
:103480002969826942EA01218161D4E7206800F05C
:10349000FBFF2068C16941F00801C1612068C16972
:1034A00021F00401C16120682A69C169114311E05A
:1034B000206801F035F82068C16941F40061C161FC
:1034C0002068C16921F48061C16120682969C269ED
:1034D00042EA0121C161AEE7206801F05DF8206891
:1034E000416D41F0080141652068416D21F0040102
:1034F000416520682A69416D114311E0206801F09F
:1035000085F82068416D41F4006141652068416D96
:1035100021F48061416520682969426D42EA0121F8
:10352000416588E710B5040003D094F83D0010B160
:1035300007E0012010BD002084F83C00204600F088
:1035400022F8022084F83D002068211D00F07AFE58
:10355000012084F8480084F83E0084F83F0084F895
:10356000400084F8410084F8420084F8430084F865
:10357000440084F8450084F8460084F8470084F845
:103580003D00002010BD704730B504464FF00202E8
:1035900069B1042912D0082917D00C291CD0102990
:1035A00021D094F84300012824D0012030BD94F8A4
:1035B0003E000128F9D184F83E201DE094F83F0038
:1035C0000128F2D184F83F2016E094F84000012849
:1035D000EBD184F840200FE094F841000128E4D1B9
:1035E00084F8412008E094F842000128DDD184F8F5
:1035F000422001E084F843200122206800F084FE8C
:103600001B4B20681B491C4A984209D0884207D0AE
:10361000904205D0194DA84202D0194DA84203D1BD
:10362000456C45F4004545642068984212D0B0F1DD
:10363000804F0FD0134B98420CD0134B984209D0B7
:10364000124B984206D0884204D01149884201D0DA
:10365000904207D181680F4A1140062906D0B1F582
:10366000803F03D0016841F001010160002030BDBE
:1036700000000140000401400040014000440140BE
:10368000004801400004004000080040000C0040D9
:10369000001800400700010030B590F880100129A3
:1036A00018D0012280F880202421C0F88410002244
:1036B000202450F8641B0B680D6823F0005325F09C
:1036C00001050D60026050F8641C0B600462027713
:1036D000104630BD022030BD7047704770B50446BB
:1036E00090F8800001281DD0012284F88020242039
:1036F000C4F8840020680568026822F001020260B4
:103700002068826822F060620A438260204600F0EE
:10371000E1FF2268202100201560C4F8841084F89D
:10372000800070BD022070BD70B5044690F8800026
:1037300001281DD0012284F880202420C4F88400B0
:1037400020680568026822F0010202602068826831
:1037500022F060420A438260204600F0BBFF2268EC
:10376000202100201560C4F8841084F8800070BD0A
:10377000022070BD70477047704700002DE9F0418E
:1037800003680446002540F60F06D86919689A6850
:10379000304209D186067DD501F0200602F080571F
:1037A0003E4377D0216F62E1C64EC74F16400F40AF
:1037B00037436FD0C70709D0CF0507D501271F6250
:1037C000D4F88C3043F00103C4F88C3083070AD559
:1037D000D30708D0276802233B62D4F88C3043F02B
:1037E0000403C4F88C3043070AD5D30708D02768F0
:1037F00004233B62D4F88C3043F00203C4F88C30CD
:1038000003070CD501F02003334308D026680823B2
:103810003362D4F88C3043F00803C4F88C300305CD
:103820000BD54B0109D526684FF400633362D4F8F9
:103830008C3043F02003C4F88C30D4F88C30002B4B
:103840003AD0800609D501F0200002F080510843EB
:1038500003D0216F09B1204688472168D4F88C0035
:103860008968490602D410F0280F27D0204600F0BE
:10387000F1FF2068806840061BD52068083050E8BA
:10388000001F21F0400140E80012002AF5D1E06F4E
:1038900078B100E018E08D490165E06FFDF788F927
:1038A000002809D0E06F016D00E02046BDE8F0413E
:1038B00008472046FFF760FFBDE8F0812046FFF78C
:1038C0005BFFC4F88C50F7E7E76E2026012F7CD110
:1038D000C7067AD5CF0678D5102018622068806890
:1038E00040067DD5E16F7A4A0868904234D0784A24
:1038F0001832904230D0764A303290422CD0744AFE
:103900004832904228D0724A6032904224D0704AA5
:103910007832904220D06E4A903290421CD06C4A4D
:10392000A832904218D06B4A904215D0694A18329A
:10393000904211D0674A303290420DD0654A4832E9
:10394000904209D0634A6032904205D0614A783291
:10395000904201D05F4A903240680004000CABD026
:10396000B4F85C208242A7D9A4F85E00C869B0F51B
:10397000807F2ED0216851E8000F20F4807041E84C
:103980000002002AF6D12068083050E8001F21F01C
:10399000010140E80012002AF5D12068083050E803
:1039A000001F21F0400140E80012002AF5D1C4F8C0
:1039B0008860E566216851E8000F20F0100041E8BA
:1039C0000002002AF6D1E06F01E03BE008E0FCF7DE
:1039D0003FFFB4F85C00B4F85E10401A81B22DE0ED
:1039E000B4F85C00B4F85E10B4F85E20401A81B2FE
:1039F000002AB4D00029B2D0226852E8000F20F487
:103A0000907042E80003002BF6D1334B226802F19C
:103A1000080252E8000F00EA030042E80007002F06
:103A2000F4D1C4F88860E5662567226852E8000F83
:103A300020F0100042E80003002BF6D12046FFF7EB
:103A40004BFE39E7C70209D5570207D54FF480105E
:103A500018622046BDE8F041FFF78DBE03060AD587
:103A600001F0800302F40002134304D0616F0029C7
:103A70007FF41BAF20E7420611D54A060FD520463A
:103A8000026852E8001F21F0400142E80013002BB9
:103A9000F6D1C0F88460456700F09EF80CE702029A
:103AA00006D54A0004D52046BDE8F041FFF762BEC6
:103AB000C001C6D50029C4DA2046BDE8F041FFF7B1
:103AC0000CBE000001000010200100044148000865
:103AD0001000024010040240FEFFFFEF10B504008A
:103AE00003D0D4F8840010B107E0012010BD0020FD
:103AF00084F88000204600F027F82420C4F88400D1
:103B00002068016821F001010160204600F0CCFE30
:103B10000128EBD0A06A10B1204600F0FDFD20681E
:103B2000416821F4904141602068816821F02A01B8
:103B300081602068016841F0010101602046BDE814
:103B4000104000F04DBE000030B5B5B00446142161
:103B50002FA8FCF7BAFCBC216846FCF7B6FC1B4951
:103B6000206888422FD102256846002400951D94C4
:103B7000FEF7D0F908B1FCF740FD1548016841F0A7
:103B800000410160006800F000403490104808389F
:103B9000016841F01001016000680821CDE930544E
:103BA00000F01000349003202F90CDE932410948F5
:103BB0002FA9FDF769FE002253201146FDF7F8FFFB
:103BC0005320FDF7E7FF35B030BD0000007C00401A
:103BD000E8440258001002587047FEE71A480021D6
:103BE0002DE9F041DFF85CC0012581601D26C0F899
:103BF00000C00327C1600A2405740E234174042207
:103C000085744761C0E90646C0E90847C0E90A462D
:103C10008563C0E90C41C0E90F13C0E91121C0E977
:103C20001321C0E91521C0E91713C0E91912FDF7E6
:103C300025FC002803D0BDE8F041FCF7DEBCBDE860
:103C4000F081000000A0004050010024114808B598
:103C5000016841F080010160016801F0800100917C
:103C6000016841F001010160016801F0010100916A
:103C7000016841F002010160016801F00201009158
:103C8000016841F010010160006800F01000009030
:103C900008BD0000E044025810B58EB000241C217D
:103CA000009407A801940294039404940594069444
:103CB000FCF70BFC2348C82145F6C0524FF0804367
:103CC000C0E9024104618461C0E90032FFF79AFA59
:103CD00008B1FCF792FC4FF48050009019486946F7
:103CE000FFF7D4FA08B1FCF788FC1648FFF71AFC76
:103CF00008B1FCF782FC134804A904940694FFF76A
:103D00002FFA08B1FCF779FC07AA6020052182E8A8
:103D100013000C48002207A90B94FFF771FB08B1B0
:103D2000FCF76BFC4FF4FA7008900648042207A9D0
:103D3000FFF766FB08B1FCF760FC0248FFF724FBC5
:103D40000EB010BDF00100241848002110B5164C2B
:103D50000C224FF4E1330460C0E90131C160C0E9D5
:103D600004128161C161016241628162FFF7B6FEA6
:103D700008B1FCF742FC0D480021FFF7D5FC08B163
:103D8000FCF73BFC09480021FFF7A8FC08B1FCF751
:103D900034FC0648FFF780FC002803D0BDE8104043
:103DA000FCF72BBC10BD0000007C00403C0200244E
:103DB000FEE7FEE7704700002DE9F047454D044659
:103DC00089464FF0000A2868C04380070AD0414E58
:103DD000283E306820F080603060FDF771FE0746B5
:103DE000B04608E00120BDE8F08700BFFDF768FE9F
:103DF000C01B022867D8D8F800000001F6D420685C
:103E000029684FF4FE0721F47C313E0241EA00307C
:103E10002860207AA389B4F804C040022D4D2D49B2
:103E20005B1E227CACF1010C1035091DA0F5007061
:103E300080B2521ECCF3080C07EA034340EA0C00A0
:103E4000184306EA0262104328600868626920F09D
:103E5000C000104308600A68A06922F020020243F3
:103E60000A60281D0A6822F010020A6002684FF6F4
:103E7000F873E4699A4342EAC40202600868B9F13F
:103E8000000F40F010020A6011D00868B9F1010F6C
:103E900011D040F400100860D8F80000444640F00B
:103EA0008060C8F80000FDF70BFE05460DE00868CD
:103EB00040F40020EFE740F48010ECE7FDF700FE4F
:103EC000401B022801D903208DE720680001F5D5A9
:103ED000504688E7284402582DE9F047454D0446EE
:103EE00089464FF0000A2868C04380070AD0414E37
:103EF000283E306820F080503060FDF7E1FD074635
:103F0000B04608E00120BDE8F08700BFFDF7D8FD0E
:103F1000C01B022867D8D8F800008000F6D420889B
:103F200029684FF4FE0721F07C713E0241EA0050FF
:103F30002860207AA389B4F804C040022D4D2D4991
:103F40005B1E227CACF1010C1835091DA0F5007038
:103F500080B2521ECCF3080C07EA034340EA0C007F
:103F6000184306EA0262104328600868626920F478
:103F70004060104308600A68A06922F4007202439E
:103F80000A60281D0A6822F480720A6002684FF6EF
:103F9000F873E4699A4342EAC40202600868B9F11E
:103FA000000F40F480720A6011D00868B9F1010F67
:103FB00011D040F080700860D8F80000444640F00E
:103FC0008050C8F80000FDF77BFD05460DE008684D
:103FD00040F48000EFE740F40000ECE7FDF770FDEF
:103FE000401B022801D903208DE720688000F5D509
:103FF000504688E7284402587047000010EE100A27
:104000001249884201DD9FED120AB5EEC00AF1EEB9
:1040100010FA01D29FED0F0A9FED0F1B9FED104B81
:10402000B7EEC00A9FED103B11490A6880EE012BE4
:1040300032EE040B20EE030BBCEEC00B10EE100AA8
:10404000C0B2401E50630968886370470000874310
:104050000000874300000000000000000018A54099
:104060009A9999999999993F000000000000694038
:10407000F00100240FB40F480923002210B50B995A
:1040800080F848300B0A80F8493080F84A1002A9BD
:1040900080F84B2080F84C2080F84D2080F84E208E
:1040A00080F84F2000F148020348FCF719FF10BCCC
:1040B0005DF814FB0800002450010024FDF706BD44
:1040C00070B59CB04C216846FCF7FFF9202113A87D
:1040D000FCF7FBF90220FDF79DFD21480024214952
:1040E000026842F44042026002680A6842F001023B
:1040F0000A60096801F001011B9101688904FCD57F
:10410000022009900DF1280C052101220092C30321
:10411000019360258CE823000FAD0822042685E872
:1041200016001294CDE90D066846FEF76DFD08B144
:1041300072B6FEE713AD40203F21032285E816004A
:1041400003011A90CDE916400421CDE9180313A804
:10415000FEF74AFB002801D072B6FEE71CB070BD26
:10416000184802582C0400582C48F0B52C4A016815
:1041700041F470010160106800F00F00072804D2BC
:10418000106820F00F00C01D106026490020254C4B
:1041900010340B68244D43F001030B6020600B6862
:1041A0002B400B60136803F00F03072B04D913682F
:1041B00023F00F03DB1D13601A4C1C4A18341C4BF0
:1041C000261D371D2060174C1A4D28343060261DDF
:1041D0003860371D23603B1D35601C1D3A60251D6E
:1041E0002E1D1860331D22602860326018600A6836
:1041F0000C4B114C22F4802260330A601860206856
:104200006FF30F00B0F1005F03D20C490120C1F839
:10421000080143F2D2000A490860F0BD88ED00E0D1
:1042200000200052004402587FEDF6EA80020101AE
:10423000000202020000FF010010005C008000513B
:10424000004000522DE9F047274B4FF0804A274DA0
:1042500002689842264E274F274C09D0504507D078
:10426000A84205D0B04203D0B84201D0A04205D147
:10427000D1F804C022F070024CEA0202DFF87CC0E0
:10428000DFF87C809842DFF87C900FD050450DD04D
:10429000A8420BD0B04209D0B84207D0A04205D006
:1042A000604503D0404501D0484503D1CD6822F494
:1042B00040722A434D6922F080022A4302609842EC
:1042C0008A68C2620A68826207D0A04205D060454F
:1042D00003D0404501D0484501D10969016301215E
:1042E0004161BDE8F087000000000140000400408B
:1042F00000080040000C0040000401400040014064
:10430000004401400048014010B5046A012301F057
:104310001F018B409C4304628A40016A1143016281
:1043200010BD42EA032283680A4323F47F410A4313
:1043300082607047034B82681A400A4342F00701CB
:10434000816070478FFFCFFF2DE9F04F026ADFF8E1
:104350008880DFF8889022F00102DFF884A0DFF87F
:1043600084B0214F0262DFF884C0066A4268836924
:1043700026F002060D68B8428C6803EA0C0323F0AD
:10438000030344EA060445EA030507D0404505D087
:10439000484503D0504501D0584505D1CB6824F09D
:1043A0000804234323F00404B84207D0404505D055
:1043B000484503D0504501D0584505D122F44076F8
:1043C000D1E9053233431A4342608561496841634C
:1043D0000462BDE8F08F000000040140004001408D
:1043E0000044014000480140000001408FFFFEFFF3
:1043F000F0B5026A1E4E1F4C22F01002DFF878E082
:104400000262056A4368826925F02005D1F808C078
:10441000A0420F6802EA060222F4407245EA0C1537
:1044200042EA072201D0704506D1CE6825F080050A
:1044300045EA061525F04005A0420AD0704508D08F
:104440000E4CA04205D00E4CA04202D00D4CA04212
:1044500007D1D1E9054623F4406343EA840343EAE4
:10446000860343608261496881630562F0BD000094
:10447000FF8FFFFE000001400004014000400140AA
:104480000044014000480140F0B5026A1E4F1F4E33
:1044900022F48072DFF878E00262056A4368C2693C
:1044A00025F40075D1F808C0B0420C6802EA070292
:1044B00022F0030245EA0C2544EA020401D07045CB
:1044C00006D1CF6825F4006242EA072222F4806513
:1044D000B0420AD0704508D00E4A904205D00E4A2C
:1044E000904202D00D4A904207D123F44052D1E9C4
:1044F000053642EA031242EA06134360C461496882
:10450000C1630562F0BD00008FFFFEFF00000140A7
:1045100000040140004001400044014000480140C7
:10452000F0B5026A174B164F22F48052984202628D
:10453000046A4268C36924F400548E680D6803EA73
:10454000070323F4407344EA063443EA05230BD0FF
:104550000D4DA84208D00D4DA84205D00C4DA842E3
:1045600002D00C4DA84204D14D6922F4804242EAA7
:1045700085124260C361496801640462F0BD0000B5
:10458000FF8FFFFE00000140000401400040014099
:104590000044014000480140F0B5026ADFF854C011
:1045A00022F480320262056A4268446D25F40035C7
:1045B0000E896045104F0B6804EA070445EA06457A
:1045C00043EA04030BD00D4CA04208D00C4CA0428F
:1045D00005D00C4CA04202D00B4CA04204D14C6937
:1045E00022F4803242EA04224260436549688165D0
:1045F0000562F0BD000001408FFFFEFF0004014096
:10460000004001400044014000480140F0B5026A0A
:10461000DFF854C022F480120262046A4268436DDB
:1046200024F400140E896045104F0D6803EA070357
:1046300044EA065443EA05230BD00D4DA84208D0A6
:104640000C4DA84205D00C4DA84202D00B4DA842FB
:1046500004D14D6922F4802242EA852242604365FA
:104660004968C1650462F0BD00000140FF8FFFFE94
:104670000004014000400140004401400048014066
:1046800010B5036A046A23F00A0324F001040462EB
:1046900084690B4324F0F00141EA02118161036255
:1046A00010BD10B5036A23F0100303628369046A26
:1046B00023F4704324F0A00443EA0232826144EA06
:1046C0000111016210BD00000148FFF757B800005A
:1046D0003C02002430B5416EB9B101680D4B03F1C5
:1046E00008048A688968C2F34262490F5D5C615CB4
:1046F0002D01B5FBF1F1A0F86A10995CA25C0901EB
:10470000B1FBF2F1A0F8681030BD0121A0F86A10E9
:10471000F8E70000644E000890F82810C90706D09A
:104720000168C36A4A6822F400321A434A6090F86A
:104730002810890706D50168036B4A6822F4803285
:104740001A434A6090F82810490706D50168436B60
:104750004A6822F480221A434A6090F82810090718
:1047600006D50168836B4A6822F400421A434A6006
:1047700090F82810C90606D50168C36B8A6822F430
:1047800080521A438A6090F82810890606D501687D
:10479000036C8A6822F400521A438A6090F8281049
:1047A000490611D50168436C4A6822F480121A4305
:1047B0004A60416CB1F5801F06D10168836C4A687C
:1047C00022F4C0021A434A6090F82810090606D560
:1047D0000168C26C486820F40020104348607047AC
:1047E000F8B500260446C0F88C60FDF769F9054667
:1047F00020686FF07E470068000708D500222B462E
:104800004FF400112046009700F024FA60B92068A8
:10481000006840070AD500222B464FF4800120464D
:10482000009700F017FA08B10320F8BD2020C4F863
:104830008400C4F88800E666002084F88060F8BD33
:1048400010B5806B0021A0F85E10A0F85610FEF79E
:1048500093FF10BD10B5026852E8001F21F490715B
:1048600042E80013002BF6D10E4B0268083252E8E2
:10487000001F194042E80014002CF6D1C16E012936
:1048800008D1026852E8001F21F0100142E800132D
:10489000002BF6D100212022C0F88820C1660167D4
:1048A00010BD0000FEFFFFEF2DE9F04304468068D5
:1048B000D84E87B0D84B2168D4E90427D4F81CC05F
:1048C00010430A68002547EA0C0738433240024388
:1048D0000A602068E268416821F440511143416058
:1048E0002268A1699A4201D0206A01439768DFF8E3
:1048F0002CC3CB4ECB4807EA0C070F4397602168C7
:10490000676ACA6A22F00F023A43CA622268B24258
:104910000ED1006800F03800182873D047DCB8B317
:10492000082879D010286FD178E028287ED17BE044
:10493000BD498A4209D1006800F00700062875D2F7
:10494000DFE800F0546A6C6E7072B8498A4209D18F
:10495000006800F00700062868D2DFE800F0475D35
:104960005F616365B2498A4209D1006800F00700BF
:1049700006285BD2DFE800F03A5052545658AD4951
:104980008A420BD1006800F0070006284ED200E0F2
:1049900010E0DFE800F02B4143454749A6498A4231
:1049A0000AD1006800F03800182839D0B7DD202877
:1049B000BBD13CE001203AE0A0498A4209D100681D
:1049C00000F00700062831D2DFE800F01026282A80
:1049D0002C2E9B498A420BD1006800F00700062864
:1049E00024D2DFE800F003191B1D1F2100201EE068
:1049F0009A421BD18B48001D006800F00700062872
:104A000014D202E00CE007E010E0DFE800F003055C
:104A100007090B0D02200AE0042008E0082006E048
:104A2000102004E0202002E0402000E080208549A2
:104A3000DFF814829A42854A4FF400434FEA211767
:104A40004FF000064ED110281AD006DC022809D0FB
:104A500004280BD008287CD10DE020283ED0402827
:104A600077D13DE0FDF700F9014610E06846FDF71B
:104A70000DF901990BE003A8FDF7AAF9049906E0E6
:104A80001068800605D51068C0F3C100C140002938
:104A900070D0606A676838F8102007EB4703B1FBF5
:104AA000F2F0834255D8B0EB073F52D800230846B6
:104AB0001946FBF761FC02467808130E120243EA1E
:104AC000012110183A4671410023FBF755FC604A5A
:104AD000A0F5407191423CD821688FE03946D8E773
:104AE0001946D6E7D4F81CC04FF6EF799C4546D15D
:104AF000082819D005DC58B101280CD0042875D13C
:104B00000DE0102815D0202835D040286ED134E093
:104B1000FDF7BAFF01E0FDF7C9FF014610E0684666
:104B2000FDF7B4F801990BE003A8FDF751F90499DA
:104B300006E01068800604D51068C0F3C100C140CB
:104B4000C1B1636A606838F81330B1FBF3F1490012
:104B500000E04BE001EB5001B1FBF0F0A0F11001DF
:104B6000494543D84FF6F0732168C0F3420218401C
:104B7000104343E043E03946E3E71946E1E70828FC
:104B800019D005DC58B101280CD004282ED10DE035
:104B9000102815D020282BD0402827D12AE0FDF757
:104BA00073FF01E0FDF782FF014610E06846FDF764
:104BB0006DF801990BE003A8FDF70AF9049906E0E6
:104BC0001068800604D51068C0F3C100C140B1B1BF
:104BD000636A606838F81330B1FBF3F101EB500100
:104BE000B1FBF0F0A0F11001494505D9012506E01F
:104BF0003946EDE71946EBE7216880B2C86001202D
:104C0000A4F86A00A4F8680028462667666707B01B
:104C1000BDE8F083F369FFCF000C0058FFF4FF11EB
:104C20000010014054440258004400400048004035
:104C3000004C00400050004000140140007800404B
:104C4000007C00400090D0034C4E00080044025805
:104C5000FFFC0F002DE9F0479A4617460E46044622
:104C6000089D4FF000094FF020084CE0681C4AD026
:104C7000FCF726FFA0EB0A00A8422AD84DB3206813
:104C8000016849073FD5C069C04300053BD421688E
:104C90004FF400600862216851E8000F20F4D070E2
:104CA00041E80002002AF6D12068083050E8001FD1
:104CB00021F0010140E80012002AF5D1C4F88480F7
:104CC00084F88090C4F88880C4F88C800320BDE804
:104CD000F087206850E8001F21F4D07140E80012EE
:104CE000002AF6D12068083050E8001F21F00101A9
:104CF00040E80012002AF5D1C4F8848084F880903E
:104D0000C4F88880E2E72068C06936EA000004D071
:104D10000020B842AAD00020D9E70120F9E7FEE739
:104D2000090700284FEA116104DB00F1E02080F858
:104D30000014704700F00F0000F1E02080F8141D0F
:104D4000704700002DED028B86B0FCF7C7FEFFF721
:104D5000B7F9FEF77BFFFEF741FFFEF7F5FFFEF721
:104D60009BFFFBF717FC1A49502414226846059450
:104D7000FBF779FB164810380FC8FFF77BF9154988
:104D8000142268460594FBF76EFB124810380FC8D2
:104D9000FFF770F99FED108AB0EE480AFFF72EF981
:104DA0000E480021FEF7F0FBDFED0D8A4FF47A7418
:104DB000B0EE480AFFF722F92046FCF73BF8B0EEC8
:104DC000680AFFF71BF92046FCF734F8F0E700000B
:104DD000D0000024F400002400000000F0010024B2
:104DE0000000B4424FF04070E1EE100A704700003E
:104DF0000001020304050607080C101418203040B7
:104E000000000000000000000000000000000000A2
:104E1000000000000100000002000000030000008C
:104E20000400000000000000050000000000000079
:104E3000000000000000000006000000000000006C
:104E40000000000000000000070000000100020058
:104E50000400060008000A000C00100020004000BA
:104E600080000001010101030701000008040204A1
:104E70000801010100000000010203040102030413
:104E800006070809A44E0008000000247C0000006A
:104E9000D4020008204F00087C000024B408000061
:104EA000F002000800000000000000000000000008
:104EB00000000000010000000000000002000000EF
:104EC00000000000030000000000000004000000DB
:104ED00000000000050000000000000006000000C7
:104EE00000000000070000000000000008000000B3
:104EF0000000000009000000000000000A0000009F
:104F0000000000000B000000000000000100000095
:104F100010000000000000000090D0030090D003BB
:040000050800029954
:00000001FF
